:060000000A128A11C02F54
:100F800083010A128A11C42F1830831603138700B5
:100F900008308312031394008030831603139400E7
:100FA000910128309300831203138C119416D82FCB
:100FB000831603131114DC2F83128C1DE02FE12FF5
:100FC000DC2F8C1192309300E52F8C1DE82FE92F38
:100FD000E52F8C1145309300ED2F8C1DF02FF12F54
:100FE000ED2F8C11831603131115F62F83128C1D10
:100FF000FA2FFB2FF62F8C11D82F0A128A110028F6
:00000001FF
