:060000000A128A11122809
:10000800FE00030EF1000408F2000A08F300831250
:1000180003137F08F4000A128A1148280A128A1169
:1000280035288316031388018312031388011830B7
:100038008316031387003630831203139400831644
:100048000313940180309100923093008B170B17A3
:100058008C15831203138C11941631280A128A11F5
:100068001228FB01F601F701F801F901FA018313DF
:10007800203084003E300A128A1163200A128A1145
:1000880083010A128A1115281308F0007008F50078
:10009800750888008C117408FF0073088A007208BC
:1000A8008400710E8300FE0E7E0E090000308A0067
:1000B8000408840A82070034253463340034640059
:0E00C8008001840A040603190034040664282B
:00000001FF
