:100000000A128A11AE2F00308A000408840A82077F
:08001000003425346334003490
:100F4C0064008001840A0406031900340406A72FE8
:100F5C00FB01703084007B300A128A11A6270A121A
:100F6C008A1183132030840038300A128A11A62784
:100F7C000A128A1183010A128A11C42F183083169F
:100F8C0003138700083083120313940080308316F8
:100F9C0003139400910128309300831203138C11D6
:100FAC009416D82F831603131114DC2F83128C1D67
:100FBC00E02FE12FDC2FE22F92309300E52F8C1DD8
:100FCC00E82FE92FE52FEA2F36309300ED2F8C1DFB
:100FDC00F02FF12FED2F831603131115F52F83121C
:100FEC008C1DF92FFA2FF52FD82FD82FD82F0A12A6
:040FFC008A1100282E
:00000001FF
