:060000000A128A11122809
:10000800FE00030E83120313D2000408D3000A086B
:10001800D4007F08D5000A128A1160290A128A15AD
:10002800EC2A9A3083120313CD009930CE003E306B
:10003800CF00CA1F202821282728C709C809C70AAE
:100048000319C80A27284909CB004A09CC00CB0A5A
:100058000319CC0A47084B07F80048080318480A50
:100068004C07F9000A128A1556230A128A117808D1
:1000780083160317990079089A007A089B0083165B
:100088000313600883120313B70083160313610870
:1000980083120313B8008316031362088312031331
:1000A800B9000030AA008030AB003F30AC004D08EA
:1000B800F0004E08F1004F08F2000A128A15D0210C
:1000C8000A128A11700883120313AD007108AE007A
:1000D8007208AF000A128A11A9220A128A11831221
:1000E80003132A08BA002B08BB002C08BC000A120C
:1000F8008A112B260A128A11831203133708AA00C1
:100108003808AB003908AC004D08B7004E08B800F5
:100118004F08B9000930903E840083170008BA00E0
:10012800840A0008BB00840A0008BC000A128A116D
:100138002B260A128A11831203133708AD003808D8
:10014800AE003908AF000A128A11A9220A128A11D0
:10015800831203132A08D6002B08D7002C08D800CE
:100168005608AA005708AB005808AC000F30903E5C
:10017800840083170008AD00840A0008AE00840AD2
:100188000008AF000A128A11A9220A128A118312E2
:1001980003132A08831603179F00831203132B08DF
:1001A80083160317A000831203132C088316031762
:1001B800A1009F3083120313CB004B08F0001430CA
:1001C8000A128A157E230A128A118312031356080B
:1001D80083160313E00083120313570883160313CF
:1001E800E10083120313580883160313E2008316F1
:1001F8000317100883120313BA0083160317110894
:1002080083120313BB008316031712088312031308
:10021800BC005608B7005708B8005808B9000A12B9
:100228008A112B260A128A11831203133708AD008C
:100238003808AE003908AF000F30903E84008317AD
:100248000008BA00840A0008BB00840A0008BC0041
:100258000330903E84000008B700840A0008B80004
:10026800840A0008B9000A128A112B260A128A1178
:10027800831203133708AA003808AB003908AC000A
:100288000A128A11A9220A128A11831203132A0850
:10029800F8002B08F9002C08FA000A128A155A27C8
:1002A8000A128A11790883120313C801C80778084B
:1002B800C701C7075F2908000A128A150B230A120B
:1002C8008A110A128A15AE230A128A11831203139D
:1002D800D0005008E90005083C39D0005008E80073
:1002E800680888008C1E79297A29F0291A08D00014
:1002F8005008EA006A08573A031D8329842992297D
:100308003230E1000030E20083160313E701E80110
:1003180083120313E5010314E50D92296A08513A83
:10032800031D97299829A229E101E20183160313E5
:10033800E701E80183120313E501A2296A08533A89
:10034800031DA729A829B629CE30E100FF30E20015
:1003580083160313E701E80183120313E50103146D
:10036800E50DB6296A08413A031DBB29BC29C829ED
:10037800EC3083160313E700FF30E80002308312E5
:100388000313D0005008E5006A08443A031DCD293C
:10039800CE29DB29143083160313E7000030E80068
:1003A800023083120313D0005008E500DB295C08F3
:1003B800F101F1075B08F001F0075E08F301F307AC
:1003C8005D08F201F2070A128A15DF230A128A1160
:1003D800831203138C129C2A0B1DF329F429902AEB
:1003E8003C3081000B116308D000D1015008DF00B8
:1003F8005108E000E3016008C801C8075F08C701A9
:10040800C7076208CA01CA076108C901C9070A12F1
:100418008A1115200A128A11831203134808DA0177
:10042800DA074708D901D9075A08DC01DC07590857
:10043800DB01DB075A08DE01DE075908DD01DD07AD
:100448006508013A031D292A2A2A3C2A5C08F10179
:10045800F1075B08F001F0075E08F301F3075D0898
:10046800F201F2070A128A15DF230A128A119C2A5E
:10047800831203136508053A031D432A442A522AA6
:100488003730F0000030F1003730F2000030F30070
:100498000A128A15DF230A128A119C2A831203136F
:1004A8006508033A031D592A5A2A682A3C30F00085
:1004B8000030F1002830F2000030F3000A128A15EB
:1004C800DF230A128A119C2A831203136508043A4F
:1004D800031D6F2A702A7E2A2830F0000030F100B0
:1004E8003C30F2000030F3000A128A15DF230A12AA
:1004F8008A119C2A0030F0000030F1000030F20030
:100508000030F3000A128A15DF230A128A119C2A86
:100518009C2A9C2A9C2A9C2A8B1C932A942A9C2AD3
:100528000130D0005008E3078B109C2A9C2A9C2A93
:10053800831203135508FF0054088A0053088400E7
:10054800520E8300FE0E7E0E0900831203132A0842
:10055800B0002B08B1002C08B2000310310D320D89
:10056800B3003308B6002D08B0002E08B1002F08DC
:10057800B2000310310D320DB3003308B500360850
:10058800031DC72AD82A350836020318CC2ACD2AD3
:10059800E02A3603FF3A3507B00019303002031C51
:1005A800D62AD72AE02AD82A2D08AA002E08AB0076
:1005B8002F08AC00EE2BEE2B3508031DE42AF42A95
:1005C800360835020318E92AEA2AF52A3503FF3ADC
:1005D8003607B00019303002031CF32AF42AF52A32
:1005E800EE2B0630B0003008B400AC1FFC2AFD2A00
:1005F800FE2AB417AF1F012B022B032B3417AB179E
:10060800FF30AA05FF30AB050030AC05AE17FF3050
:10061800AD05FF30AE050030AF05350836020318CA
:10062800162B172B482B182B01300310AD0DAE0DD0
:10063800AF0DFF3E031D192B0130B50235083606F4
:100648000319272B282B402B0130B4023408073913
:10065800031D2F2B302B182B402B402B402B013008
:100668000310AC0CAB0CAA0CFF3E031D342B01305D
:10067800B0003008B607402B36083506031D452B59
:10068800462B332B7F2B7F2B3608350203184D2B37
:100698004E2B7F2B4F2B01300310AA0DAB0DAC0D49
:1006A800FF3E031D502B0130B602350836060319EC
:1006B8005E2B5F2B772B0130B40234080739031DFA
:1006C800662B672B4F2B772B772B772B013003105B
:1006D800AF0CAE0CAD0CFF3E031D6B2B0130B00010
:1006E8003008B507772B36083506031D7C2B7D2B84
:1006F8006A2B7F2B7F2BB41F822B832B942BFF30ED
:10070800AA06FF30AB06FF30AC060130AA0700305E
:1007180003180130AB07003003180130AC07942BE5
:10072800341F972B982BA92BFF30AD06FF30AE0650
:10073800FF30AF060130AD07003003180130AE07B7
:10074800003003180130AF07A92BB4012A08AD0700
:100758002B08031103182B0A0319B32BAE072C0817
:10076800031103182C0A0319BA2BAF07AF1FBD2BAF
:10077800BE2BD22BFF30AD06FF30AE06FF30AF06E2
:100788000130AD07003003180130AE070030031800
:100798000130AF07B4010314B40DD22B2D08F000BB
:1007A8002E08F1002F08F2003608B0003008F300D8
:1007B8003408B1003108F4000A128A154D260A12CD
:1007C8008A11700883120313AA007108AB0072081B
:1007D800AC00EE2B08008316031386100510851055
:1007E80009148914091505160A128A15BE210A1258
:1007F8008A110A128A152F230A128A1183160313E3
:10080800A3012F30DD005D08A40001300A128A150B
:10081800A5240A128A1183160313A3012830DD00C8
:100828005D08A40002300A128A15A5240A128A114A
:100838000A128A15B1210A128A110A128A15EA21A6
:100848000A128A110A128A15C7210A128A110A1273
:100858008A1544220A128A11883083160313A000CD
:100868001330A1000A128A1584220A128A110B3049
:100878000A128A1120250A128A11831203135C08AE
:1008880083160313A101A107831203135B088316C0
:100898000313A001A007831203135E088316031332
:1008A800A301A307831203135D0883160313A20190
:1008B800A2070A128A1539250A128A110A128A15FC
:1008C800DC210A128A110A128A1558220A128A1180
:1008D8006D2C073083160313DD005D08D5008312E5
:1008E8000313600883160313D701D7078312031372
:1008F8005F0883160313D601D6070330DE005E08AF
:10090800D80002300A128A15D6250A128A11073031
:1009180083160313DD005D08D5000310831203134B
:100928000918031400300318013083160313DE007E
:10093800DF015E08D6005F08D700D8010314D80D80
:1009480001300A128A15D6250A128A110830831630
:100958000313DD005D08D500031083120313891803
:10096800031400300318013083160313DE00DF017F
:100978005E08D6005F08D700D8010314D80D0130EF
:100988000A128A15D6250A128A110930831603130A
:10099800DD005D08D5000310831203130919031441
:1009A80000300318013083160313DE00DF015E08F0
:1009B800D6005F08D700D8010314D80D01300A12F9
:1009C8008A15D6250A128A110A3083160313DD0008
:1009D8005D08D500031083120313051A03140030B1
:1009E8000318013083160313DE00DF015E08D6000A
:1009F8005F08D700D8010314D80D01300A128A15F0
:100A0800D6250A128A11831203136008831603136A
:100A1800AF01AF07831203135F0883160313AE01F8
:100A2800AE071D300A128A1120250A128A116D2C70
:100A38006D2C0A128A11122883160313B400AE30E3
:100A4800B0003008B600142E3B08253A03192D2DA6
:100A58002E2D352D3B080A128A15FA210A128A1101
:100A6800142EB3014E2D2A2E682D682D36088400C9
:100A780083130008B0003008BB000230B000300813
:100A8800B607462D3B080A128A15FA210A128A115E
:100A9800142E682D013083160313B407FF30340772
:100AA80084000A128A1500200A128A11BB00003A33
:100AB80003192A2E633A03193A2D073A0319682DA8
:100AC8000D3A0319682D462D831603133608840042
:100AD80083130008B700840A0008B8000230B00089
:100AE8003008B607B81F792D7A2D842D0330B00051
:100AF8003008B304B709B809B70A0319B80A842D2E
:100B0800BB010314BB0D3B08053A031D8C2D8D2D2D
:100B18008F2DB72DB72D3B08B0003007013E84005C
:100B28000A128A1500200A128A11B1000A128A15BF
:100B380000200A128A11B20032083802031DA62DBD
:100B4800310837020318A92DAA2DAC2DB72DB72DC2
:100B58000130B0003008BB073B08053A031DB52D2E
:100B6800B62D8F2DB72D330803390319BC2DBD2D94
:100B7800C42D2D300A128A15FA210A128A11C42DA1
:100B8800831603133B08B0003008B500062E0A3060
:100B9800A8000030A9003508B0003007013E8400E5
:100BA8000A128A1500200A128A11A0000A128A1550
:100BB80000200A128A11A1003808A301A3073708E8
:100BC800A201A2070A128A1586250A128A1183161B
:100BD80003132108AB01AB072008AA01AA070A12D0
:100BE8008A1518240A128A11831603132808303E1E
:100BF800B1003108BB003B080A128A15FA210A1213
:100C08008A11062EFF3083160313B0003008B5078B
:100C18003508FF3A031D112E122ECB2D142E142E3B
:100C2800013083160313B407FF30340784000A1217
:100C38008A1500200A128A11B0003008BB00BB08D0
:100C4800031D272E282E282D2A2E2A2E080083122F
:100C580003133708BD003808BE003908BF00031069
:100C68003E0D3F0DC0004008C100C108031D3D2EC8
:100C78003E2E462E0030B7000030B8000030B900D4
:100C8800182F182F3A08BD003B08BE003C08BF00CB
:100C980003103E0D3F0DC0004008C600C608031DE6
:100CA800562E572E5F2E0030B7000030B8000030A7
:100CB800B900182F182F46087B3EBD003D08C10714
:100CC8003708BD003808BE003908BF0010300310CF
:100CD800BF0CBE0CBD0CFF3E031D6B2E3D08C000B3
:100CE8004008C6003A08BD003B08BE003C08BF00EB
:100CF80010300310BF0CBE0CBD0CFF3E031D7D2E33
:100D08003D08C0004008C6068030BD003D08C60545
:100D1800B817BB17FF30BA05FF30BB050030BC055C
:100D28000030C2000030C3000030C4000730BD00EE
:100D38003D08C5009F2E371CA22EA32EB42E3A08BC
:100D4800C2073B08031103183B0A0319AC2EC3075B
:100D58003C08031103183C0A0319B32EC407B42E28
:100D680001300310B90CB80CB70CFF3E031DB52EAB
:100D780001300310BA0DBB0DBC0DFF3E031DBD2E87
:100D88000130C502031DC92ECA2E9F2ECB2E093055
:100D9800BD003D08C500D02E371CD32ED42EE52E1D
:100DA8003A08C2073B08031103183B0A0319DD2E52
:100DB800C3073C08031103183C0A0319E42EC407AF
:100DC800E52E01300310B90CB80CB70CFF3E031D1B
:100DD800E62E01300310C40CC30CC20CFF3E031DE9
:100DE800EE2E0130C502031DFA2EFB2ED02EFC2E4E
:100DF8004208F0004308F1004408F2004108BD0031
:100E08003D08F3004608BE003E08F4000A128A15A1
:100E18004D260A128A11700883120313B70071084D
:100E2800B8007208B900182F080083160313B70119
:100E3800B01F1F2F202F2F2FAD09AE09AF09B00902
:100E4800AD0A0319AE0A0319AF0A0319B00AB701AC
:100E58000314B70D2F2FB41F322F332F432FB1098F
:100E6800B209B309B409B10A0319B20A0319B30ADA
:100E78000319B40A0130B5003508B706432F00300E
:100E8800BB000030BA000030B9000030B8003008AC
:100E98002F042E042D040319522F532FA72FB60108
:100EA8000314B60D652F0130B5000310AD0DAE0D5E
:100EB800AF0DB00DB50B592F0130B5003508B60789
:100EC800652FB01F682F692F572F6B2F6B2F01309D
:100ED800B5000310B80DB90DBA0DBB0DB50B6D2FCC
:100EE80030083402031D822F2F083302031D822F7E
:100EF8002E083202031D822F2D083102031C852F74
:100F0800862F962F2D08B1022E08031C2E0FB20231
:100F18002F08031C2F0FB3023008031C300FB40234
:100F28003814962F01300310B00CAF0CAE0CAD0C7A
:100F3800FF3E031D972F0130B602031DA42FA52FD6
:100F48006B2FA72FA72F3708031DAB2FB72FB80973
:100F5800B909BA09BB09B80A0319B90A0319BA0ABF
:100F68000319BB0AB72F3B08B0003A08AF0039088D
:100F7800AE003808AD00C02F0800F200F3010830B9
:100F88007302031CC82FC92FCB2FFB2FFB2F8312F3
:100F9800031385100A300A128A159B220A128A1135
:100FA800F21FD72FD82FDC2F831203130514E02F3D
:100FB800831203130510E02F0A300A128A159B22A8
:100FC8000A128A118312031385140310F20D0A30D2
:100FD8000A128A159B220A128A110130F10071083F
:100FE800F30708307302031CFA2FFB2FCB2F831251
:060FF80003138510080040
:1010000008308A000408840A82070034013400345E
:101010000A34003464340034E834033410342734A0
:10102000B434AE34BF34DA34B334F534CA34BC34F7
:10103000BB34AF34CD34EA34B334C93421340D3445
:101040000A340034533470346534653464343A34CB
:10105000253464340D340A34003453347034653428
:10106000653464343A3400344334413452342034E7
:0A10700031340034253463340034B9
:101362008316031307178717080064008001840A95
:101372000406031900340406B72983160313051162
:1013820085128511880107309F0008008316031318
:1013920006128612061386138710071108007208B8
:1013A200710470040319D629D729DA298030F2068C
:1013B200DA29DB2908008316031306148B170B1690
:1013C2008B10473081008B160B118312031381019E
:1013D20008002430831603139800903083120313FD
:1013E20098000C308316031399008B170B178C1679
:1013F200080083160313A000200883120313990028
:10140200022A83160313981C072A082A022A092A89
:10141200080083160313A200220883120313880014
:101422008512051185110A128A15D0220A128A150F
:10143200831203138515080083160313A2002208E2
:101442008312031388008516051185110A128A1565
:10145200D0220A128A1583120313851508008312FB
:101462000313051085140A300A128A159B220A12E8
:101472008A158312031305140A300A128A159B2255
:101482000A128A1508000C308312031397003230B7
:10149200950064308316031392000C3083120313F9
:1014A2009D0032309B0092019101121508009A3082
:1014B200831603179000B930910040309200C33078
:1014C2009300753094003D30950000309600003056
:1014D2009700003098000800831203130514851446
:1014E2000A300A128A159B220A128A1583120313E2
:1014F20005100A300A128A159B220A128A158312D3
:10150200031385100800872A0000872A01308316FA
:101512000313A0020030031CA103A102FF30210625
:10152200031D952AFF302006031D982A992A852A31
:101532009A2A0800F00000000000000000000000ED
:101542000000000000000000000000000000000099
:10155200000000000130F0027008FF3A031DB22AB9
:10156200B32A9C2AB42A08008312031385140A3072
:101572000A128A159B220A128A150030831203135B
:1015820005180130F1007108F20085100A300A12C4
:101592008A159B220A128A157208CF2A0800E730A0
:1015A20083160313A0000330A10021082004031DA9
:1015B200DB2ADC2ADE2AEB2AEB2A0130A0020030E9
:1015C200031CA103A10221082004031DE92AEA2A1F
:1015D200DE2AEB2A0800EE018313563084006E30B7
:1015E2000A128A15B6210A128A15E0308400E930FF
:1015F2000A128A15B6210A128A15831790308400BE
:10160200A8300A128A15B6210A128A1583010A1213
:101612008A11EF2B831203130919102B112B1A2B8A
:101622008918142B152B1A2B0530F0007008E500D1
:101632002E2B09181D2B1E2B232B0330F0007008B4
:10164200E5002E2B051A262B272B2E2B0430F0001B
:101652007008E5002E2B2E2B2E2B0800831203136D
:1016620088010A128A15D0220A128A1501300A123A
:101672008A150A220A128A1538300A128A150A2293
:101682000A128A150C300A128A150A220A128A15BF
:1016920006300A128A150A220A128A1580300A12A4
:1016A2008A150A220A128A150800FD01F91F5A2B0F
:1016B2005B2B642BF809F909F80A0319F90AFD01F1
:1016C2000314FD0D642B7808F0007908F100F20193
:1016D2008E30FB007B08F3007D08FC007C08F400E0
:1016E2000A128A154D260A128A157008F800710826
:1016F200F9007208FA007D2B0800F30070088400DC
:101702008317000873020318872B882B8F2B73080B
:10171200F10070088400710880008F2B7308F100BB
:10172200F201F109F209F10A0319F20A70088400C0
:101732007208803A803C031DA02B71080002031836
:10174200A32BA42BAD2B7303FF3AF1007008840086
:10175200710883178000AD2B08000A128A156D22CA
:101762000A128A1598300A128A11C1270A128A159A
:101772000A128A15B5220A128A15003A0319C22BD7
:10178200C32BC62BFF30DE2BDE2BDD300A128A1173
:10179200C1270A128A150A128A15B5220A128A1557
:1017A200003A0319D52BD62BD92BFE30DE2BDE2B9C
:1017B2000A128A1530220A128A1508007108803A24
:1017C200FF0080307F02031DE82B01307002031CF2
:1017D200EB2BEC2BF32B83120313061686127008E5
:1017E2009500FB2B83120313061286167003FF3A31
:1017F2009500FB2B7308803AFF0080307F02031DA7
:10180200042C01307202031C072C082C0F2C8312AB
:1018120003130617861372089B00172C83120313F7
:10182200061386177203FF3A9B00172C08008316D3
:1018320003132908280403191F2C202C562CAD0150
:101842000314AD0D302C01300310A80DA90DFF3E7D
:10185200031D252C0130AC002C08AD07302CA91F2C
:10186200332C342C242C362C362C29082B02031D25
:101872003C2C28082A02031C3F2C402C472C280809
:10188200AA022908031CAB03AB02472C0130031048
:10189200A90CA80CFF3E031D482C0130AD02031D0C
:1018A200532C542C362C562C562C2B08A901A90744
:1018B2002A08A801A8075D2C080083160313CF008D
:1018C2000030D4000030D3000030D2000130D1000B
:1018D200D001942C4F08CB00CC01CD01CE014E0893
:1018E200A3004D08A2004C08A1004B08A000540818
:1018F200A7005308A6005208A5005108A4000A1226
:101902008A15ED240A128A15831603132308D400BC
:101912002208D3002108D2002008D1000130CB00D8
:101922004B08D007942C47085002031C992C9A2C80
:101932006B2C9B2C5408CA005308C9005208C800DB
:101942005108C700A42C080083160313A700270818
:10195200013A031DAD2CAE2CB42C2308803EA50009
:101962002508A600C12C2708023A031DB92CBA2C5F
:10197200C12C2308C03EA5002508A600C12CC12CFD
:1019820026080A128A150A220A128A15DD2C8316E3
:101992000313240884000A128A1500200A128A15E9
:1019A2000A128A151D220A128A15013083160313A0
:1019B200A5002508A407DD2C831603132408840040
:1019C2000A128A1500200A128A150038031DEA2C11
:1019D200EB2CC82CEC2C0800003083160313AC004F
:1019E2000030AB000030AA000030A900F82C201C07
:1019F200FB2CFC2C142D2408A9072508031103181D
:101A0200013E0319052DAA07260803110318013EFA
:101A120003190C2DAB07270803110318013E031904
:101A2200132DAC07142D0130A8000310A40DA50D31
:101A3200A60DA70DA80B162D01300310A30CA20CA6
:101A4200A10CA00CFF3E031D1E2D2308220421041D
:101A52002004031D2D2D2E2DF82C2F2D2C08A30034
:101A62002B08A2002A08A1002908A000382D08008E
:101A7200831603132108803AFF0080307F02031D82
:101A8200442D01302002031C472D482D532D831273
:101A920003130616861283160313200883120313F8
:101AA20095005F2D83120313061286168316031305
:101AB2002003FF3A8312031395005F2D831603134D
:101AC2002308803AFF0080307F02031D6A2D013017
:101AD2002202031C6D2D6E2D792D8312031306171E
:101AE2008613831603132208831203139B00852D8A
:101AF2008312031306138617831603132203FF3A76
:101B0200831203139B00852D080083160313A5017E
:101B1200A6012108200403198F2D902DCE2DA70197
:101B22000314A70DA02D01300310A00DA10DFF3E3F
:101B3200031D952D0130A4002408A707A02DA11F85
:101B4200A32DA42D942DA62DA62D01300310A50D95
:101B5200A60DFF3E031DA72D21082302031DB32D51
:101B620020082202031CB62DB72DBF2D2008A20289
:101B72002108031CA303A3022514BF2D0130031067
:101B8200A10CA00CFF3E031DC02D0130A702031DB6
:101B9200CB2DCC2DA62DCE2DCE2D2608A101A10711
:101BA2002508A001A007D52D080083160313DB002A
:101BB2005B08013A031DDE2DDF2DE52D5508803E21
:101BC200D9005908DA00F22D5B08023A031DEA2D0A
:101BD200EB2DF22D5508C03ED9005908DA00F22D3E
:101BE200F22D5A080A128A150A220A128A15831637
:101BF2000313DC01452E0030BF000030BE00003070
:101C0200BD000A30BC005C03FF3A5807FF3ED90012
:101C12005908C7000A300A128A155E240A128A1568
:101C2200831603134A08B0004908AF004808AE0003
:101C32004708AD005608B1005708B200B301B4011D
:101C42000A128A1119270A128A15831603133008F9
:101C5200C3002F08C2002E08C1002D08C0000A12BE
:101C62008A15C8260A128A15831603133C08303EC9
:101C72000A128A151D220A128A15013083160313CD
:101C8200D9005908DC07452E58085C02031C4A2E6D
:101C92004B2EFC2D4C2E08007308031D512E592E7D
:101CA200720871047004031D572E582E6F2E592E80
:101CB2000030F0000030F1000030F200C72EC72ED5
:101CC2006F2E0130F5007508F30701300310F20C96
:101CD200F10CF00CFF3E031D672E6F2EFE307205D5
:101CE200031D742E752E622E8D2E8D2E0130F50061
:101CF2007508F3070130F007003003180130F107CF
:101D0200003003180130F20701300310F20CF10C1D
:101D1200F00CFF3E031D862EFF307205031D922E2E
:101D2200932E772EA02EA02E0130F3020130031045
:101D3200F00DF10DF20DFF3E031D982EA02EF11FA6
:101D4200A32EA42E952E7318A72EA82EAE2EFF30EA
:101D5200F0057F30F105FF30F2050310F30C730834
:101D6200F500F601F70110300310F50DF60DF70D31
:101D7200FF3E031DB52E7508F0047608F1047708BE
:101D8200F2047408031DC62EC72EF217080083162C
:101D92000313C601C31FCE2ECF2EDE2EC009C109EA
:101DA200C209C309C00A0319C10A0319C20A0319E5
:101DB200C30AC6010314C60DDE2EBF1FE12EE22E9A
:101DC200EE2EBC09BD09BE09BF09BC0A0319BD0A32
:101DD2000319BE0A0319BF0AEE2E3F083E043D0452
:101DE2003C040319F52EF62E402FC5010314C50D30
:101DF200082F0130C4000310BC0DBD0DBE0DBF0D78
:101E0200C40BFC2E0130C4004408C507082FBF1FB5
:101E12000B2F0C2FFA2E0E2F0E2F3F084302031DFD
:101E22001C2F3E084202031D1C2F3D084102031DC8
:101E32001C2F3C084002031C1F2F202F2F2F3C0871
:101E4200C0023D08031C3D0FC1023E08031C3E0FA9
:101E5200C2023F08031C3F0FC3022F2F01300310A1
:101E6200BF0CBE0CBD0CBC0CFF3E031D302F01305D
:101E7200C502031D3D2F3E2F0E2F402F402F460837
:101E8200031D442F502FC009C109C209C309C00A4A
:101E92000319C10A0319C20A0319C30A502F4308BE
:101EA200BF004208BE004108BD004008BC00592FD7
:101EB2000800780883120313A0007908A1007A08A9
:101EC200A2000310210D220DA3002308A900A908D6
:101ED200031D6C2F6D2F772F0030FB000030FA00AE
:101EE2000030F9000030F800FF2FFF2F7808A00023
:101EF2007908A1007A08A20017300310A20CA10CE5
:101F0200A00CFF3E031D7E2F2008A3002308A4007F
:101F1200F917FF30F805FF30F9050030FA057808A7
:101F2200A5007908A6007A08A700A8018E30A902A8
:101F3200A91F9C2F9D2FC22F2908803A8F3E03187C
:101F4200A32FA42FAF2F0030FB000030FA00003087
:101F5200F9000030F800FF2FFF2FAF2F01300310E0
:101F6200A80CA70CA60CA50CFF3E031DB02F013038
:101F7200A0002008A907031DBF2FC02FAF2FE62FF7
:101F8200E62F18302902031CC72FC82FDF2F00307D
:101F9200FB000030FA000030F9000030F800FF2F9B
:101FA200FF2FDF2F0130A0000310A50DA60DA70DF6
:101FB200A80DA00BD52F0130A902DF2FA908031D00
:101FC200E32FE42FD32FE62FE62F2408031DEA2F59
:101FD200F62FA509A609A709A809A50A0319A60AA1
:101FE2000319A70A0319A80AF62F2808FB002708D5
:0E1FF200FA002608F9002508F800FF2F080065
:02400E0029FF88
:00000001FF
