:100000000A128A1112282D34FE00030EF100040892
:10001000F2000A08F300831203137F08F4000A12A7
:100020008A15A02F0A128A15382F83120313E508A8
:10003000031D1B281C2862286E0883160313C600A4
:10004000C701460883120313A00083160313470851
:1000500083120313A1006E0883160313C800C9019D
:10006000480883120313A20083160313490883125E
:100070000313A3000A128A1565270A128A110A12AD
:100080008A113D270A128A110130831203132006B8
:100090002104031D4C284D285128E9010314E90DC2
:1000A000512800306402C93003196302031C592827
:1000B0005A284C2AE901E301E401E5010314E50DA6
:1000C0004C2A4C2A6508013A031D67286828042930
:1000D0000A128A113D270A128A1101308312031372
:1000E00020062104031D752876287A28E9010314C7
:1000F000E90D7A286908013A031D7F288028BD2868
:100100006E0883160313C600C70146088312031343
:10011000A00083160313470883120313A1006E087F
:1001200083160313C800C901480883120313A200F1
:1001300083160313490883120313A3000A128A15B6
:1001400065270A128A110030831203136402C93032
:1001500003196302031CAD28AE284C2AE6010314E0
:10016000E60DE301E401023083160313C6004608DE
:1001700083120313E5004C2A4C2A0A128A114D22DD
:100180000A128A1183120313590883160313C60037
:10019000460883120313ED006D03FF3A6E078316C2
:1001A0000313C600460883120313E7006D086E07A9
:1001B00083160313C600460883120313E80067087A
:1001C00083160313C600C701460883120313A00059
:1001D00083160313470883120313A10068088316CC
:1001E0000313C800C901480883120313A200831631
:1001F0000313490883120313A3000A128A15652703
:100200000A128A114C2A4C2A831203136508023AF7
:10021000031D0B290C29D329E608031D10291129D8
:10022000B2290A128A113D270A128A11013083125B
:10023000031320062104031D1E291F292B29033027
:100240000A128A11F2270A128A1183120313E90192
:100250000314E90D2B296908031D2F296B296E084A
:1002600083160313C600C701460883120313A000B8
:1002700083160313470883120313A1006E08831625
:100280000313C800C901480883120313A200831690
:100290000313490883120313A3000A128A15652762
:1002A0000A128A1100308312031364027930031991
:1002B0006302031C5C295D294C2AE901E601E30184
:1002C000E401033083160313C600460883120313A8
:1002D000E5004C2A4C2A0A128A114D220A128A1170
:1002E00083120313590883160313C60046088312AA
:1002F0000313ED006D03FF3A6E0783160313C60068
:10030000460883120313E7006D086E078316031374
:10031000C600460883120313E80067088316031318
:10032000C600C701460883120313A00083160313F7
:10033000470883120313A100680883160313C8003B
:10034000C901480883120313A20083160313490846
:1003500083120313A3000A128A1565270A128A1151
:100360004C2A4C2A143083120313A0000030A10041
:100370003C30A2000030A3000A128A1565270A1239
:100380008A1101308312031364024130031963029E
:10039000031CCB29CC294C2AE901E301E401E60145
:1003A0004C2A4C2A4C2A6508033A031DD829D9291E
:1003B0004C2A0A128A113D270A128A11013083122F
:1003C000031320062104031DE629E729EE29E9018C
:1003D0000314E90DEA010314EA0DEE296A08013A53
:1003E000031DF329F429022A0030A0000030A100E7
:1003F0000030A2000030A3000A128A1565270A12F5
:100400008A114C2A0A128A114D220A128A11831269
:100410000313590883160313C600460883120313F7
:10042000ED006D03FF3A6E0783160313C6004608FE
:1004300083120313E7006D086E0783160313C600CB
:10044000460883120313E800670883160313C600E7
:10045000C701460883120313A0008316031347083D
:1004600083120313A100680883160313C800C9018F
:10047000480883120313A20083160313490883124A
:100480000313A3000A128A1565270A128A114C2A3F
:100490004C2A4C2A4C2A4C2A0800003083120313A1
:1004A000871A0130DB000030071A0130DC00013010
:1004B0000310DC0DFF3E031D582A0030051A0130E1
:1004C000DD0002300310DD0DFF3E031D622A003007
:1004D00009190130DE0003300310DE0DFF3E031D5D
:1004E0006C2A003089180130DF0004300310DF0D62
:1004F000FF3E031D762A003009180130E000053068
:100500000310E00DFF3E031D802A003087190130E3
:10051000E10006300310E10DFF3E031D8A2A003082
:1005200007188030610460045F045E045D045C04AD
:100530005B04E2006208EB00052B83160313AC0199
:10054000AD01352BFF3083160313AC00FF30AD0037
:10055000352B013083160313AC000030AD00352B72
:10056000023083160313AC000030AD00352B03308E
:1005700083160313AC000030AD00352B0430831616
:100580000313AC000030AD00352B05308316031388
:10059000AC000030AD00352B063083160313AC00E1
:1005A0000030AD00352B073083160313AC0000304C
:1005B000AD00352BFE3083160313AC00FF30AD00C9
:1005C000352BFD3083160313AC00FF30AD00352B07
:1005D000FC3083160313AC00FF30AD00352BFB302D
:1005E00083160313AC00FF30AD00352BFA308316B1
:1005F0000313AC00FF30AD00352BF9308316031325
:10060000AC00FF30AD00352B352B83126B083F3A21
:100610000319CC2A403A0319D32AE03A0319BE2A17
:10062000203A0319C52A703A0319B02A103A03195F
:10063000B72A383A03199D2A083A0319A92A1C3AFD
:100640000319DA2A043A0319A22A0E3A0319E82AEE
:10065000023A0319E12A073A0319F62A013A031963
:10066000EF2A033A0319FD2A352B831603132A09AF
:1006700083120313DB00831603132B098312031366
:10068000DC00DB0A0319DC0A831603132C0883122F
:1006900003135B0783160313A8002D0803182D0A04
:1006A000831203135C0783160313A9002D08AB0103
:1006B000AB072C08AA01AA072D0883120313B70160
:1006C000B707831603132C0883120313B601B6076A
:1006D0000A128A150C270A128A118312031336088C
:1006E000BF003708C0003808C10083160313430851
:1006F00083120313BC0083160313440883120313ED
:10070000BD0083160313450883120313BE000A12AB
:100710008A112C250A128A11831203133C08CF0078
:100720003D08D0003E08D10083160313230883122E
:100730000313A301A30783160313220883120313D1
:10074000A201A20783160313290883120313A10130
:10075000A10783160313280883120313A001A0071F
:100760000A128A15E0260A128A118312031321083D
:10077000B701B7072008B601B6070A128A150C2779
:100780000A128A11831203133608CC003708CD00F1
:100790003808CE000A128A11E6230A128A1183123F
:1007A00003134C08A8004D08A9004E08AA000A121D
:1007B0008A111A260A128A11831203132908DA01F0
:1007C000DA072808D901D907E52B0800831203139B
:1007D0004C08D2004D08D3004E08D4000310530D2E
:1007E000540DD5005508D8004F08D2005008D3004A
:1007F0005108D4000310530D540DD5005508D700EF
:100800005808031D042C152C570858020318092CEE
:100810000A2C1D2C5803FF3A5707D20019305202F8
:10082000031C132C142C1D2C152C4F08CC00500825
:10083000CD005108CE002B2D2B2D5708031D212C48
:10084000312C580857020318262C272C322C57031A
:10085000FF3A5807D20019305202031C302C312CB9
:10086000322C2B2D0630D2005208D600CE1F392C48
:100870003A2C3B2CD617D11F3E2C3F2C402C561720
:10088000CD17FF30CC05FF30CD050030CE05D01799
:10089000FF30CF05FF30D0050030D1055708580292
:1008A0000318532C542C852C552C01300310CF0DDC
:1008B000D00DD10DFF3E031D562C0130D702570835
:1008C00058060319642C652C7D2C0130D60256087D
:1008D0000739031D6C2C6D2C552C7D2C7D2C7D2C0B
:1008E00001300310CE0CCD0CCC0CFF3E031D712C3F
:1008F0000130D2005208D8077D2C58085706031D36
:10090000822C832C702CBC2CBC2C5808570203184A
:100910008A2C8B2CBC2C8C2C01300310CC0DCD0DD3
:10092000CE0DFF3E031D8D2C0130D802570858060E
:1009300003199B2C9C2CB42C0130D6025608073985
:10094000031DA32CA42C8C2CB42CB42CB42C01305F
:100950000310D10CD00CCF0CFF3E031DA82C01308E
:10096000D2005208D707B42C58085706031DB92CDB
:10097000BA2CA72CBC2CBC2CD61FBF2CC02CD12C25
:10098000FF30CC06FF30CD06FF30CE060130CC075D
:10099000003003180130CD07003003180130CE07B6
:1009A000D12C561FD42CD52CE62CFF30CF06FF308F
:1009B000D006FF30D1060130CF07003003180130D8
:1009C000D007003003180130D107E62CD6014C08BF
:1009D000CF074D08031103184D0A0319F02CD00757
:1009E0004E08031103184E0A0319F72CD107D11F23
:1009F000FA2CFB2C0F2DFF30CF06FF30D006FF3036
:100A0000D1060130CF07003003180130D007003085
:100A100003180130D107D6010314D60D0F2D4F084E
:100A2000A0005008A1005108A2005808D2005208A6
:100A3000A3005608D3005308A4000A128A11C02646
:100A40000A128A11831203132008CC002108CD005A
:100A50002208CE002B2D0800831203133C08C2008D
:100A60003D08C3003E08C4000310430D440DC500FB
:100A70004508C600C608031D3E2D3F2D472D0030FA
:100A8000BC000030BD000030BE00192E192E3F08FA
:100A9000C2004008C3004108C4000310430D440DC8
:100AA000C5004508CB00CB08031D572D582D602DE0
:100AB0000030BC000030BD000030BE00192E192EE1
:100AC0004B087B3EC2004208C6073C08C2003D08F6
:100AD000C3003E08C40010300310C40CC30CC20C89
:100AE000FF3E031D6C2D4208C5004508CB003F08A2
:100AF000C2004008C3004108C40010300310C40CF9
:100B0000C30CC20CFF3E031D7E2D4208C5004508E4
:100B1000CB068030C2004208CB05BD17C017FF309E
:100B2000BF05FF30C0050030C1050030C7000030F0
:100B3000C8000030C9000730C2004208CA00A02D1A
:100B40003C1CA32DA42DB52D3F08C7074008031159
:100B50000318400A0319AD2DC807410803110318F3
:100B6000410A0319B42DC907B52D01300310BE0C7D
:100B7000BD0CBC0CFF3E031DB62D01300310BF0D94
:100B8000C00DC10DFF3E031DBE2D0130CA02031D65
:100B9000CA2DCB2DA02DCC2D0930C2004208CA0091
:100BA000D12D3C1CD42DD52DE62D3F08C70740087C
:100BB00003110318400A0319DE2DC8074108031169
:100BC0000318410A0319E52DC907E62D013003106A
:100BD000BE0CBD0CBC0CFF3E031DE72D0130031005
:100BE000C90CC80CC70CFF3E031DEF2D0130CA0213
:100BF000031DFB2DFC2DD12DFD2D4708A00048081D
:100C0000A1004908A2004608C2004208A3004B0800
:100C1000C3004308A4000A128A11C0260A128A11CE
:100C2000831203132008BC002108BD002208BE0067
:100C3000192E0800831203132808AC002908AD0000
:100C40002A08AE0003102D0D2E0DAF002F08B500A1
:100C5000B508031D2C2E2D2E372E0030AB00003092
:100C6000AA000030A9000030A800BF2EBF2E28081F
:100C7000AC002908AD002A08AE0017300310AE0CF6
:100C8000AD0CAC0CFF3E031D3E2E2C08AF002F0810
:100C9000B000A917FF30A805FF30A9050030AA054C
:100CA0002808B1002908B2002A08B300B4018E3028
:100CB000B502B51F5C2E5D2E822E3508803A8F3E20
:100CC0000318632E642E6F2E0030AB000030AA0094
:100CD0000030A9000030A800BF2EBF2E6F2E0130BB
:100CE0000310B40CB30CB20CB10CFF3E031D702EFC
:100CF0000130AC002C08B507031D7F2E802E6F2E0F
:100D0000A62EA62E18303502031C872E882E9F2E65
:100D10000030AB000030AA000030A9000030A8006D
:100D2000BF2EBF2E9F2E0130AC000310B10DB20DAF
:100D3000B30DB40DAC0B952E0130B5029F2EB50846
:100D4000031DA32EA42E932EA62EA62E3008031D1F
:100D5000AA2EB62EB109B209B309B409B10A031912
:100D6000B20A0319B30A0319B40AB62E3408AB0049
:100D70003308AA003208A9003108A800BF2E0800D5
:100D8000831203132308031DC62ECE2E220821042E
:100D90002004031DCC2ECD2EE42ECE2E0030A0003C
:100DA0000030A1000030A2003C2F3C2FE42E013087
:100DB000A5002508A30701300310A20CA10CA00C6C
:100DC000FF3E031DDC2EE42EFE302205031DE92E1E
:100DD000EA2ED72E022F022F0130A5002508A307E7
:100DE0000130A007003003180130A10700300318BC
:100DF0000130A20701300310A20CA10CA00CFF3E91
:100E0000031DFB2EFF302205031D072F082FEC2E9C
:100E1000152F152F0130A30201300310A00DA10DD5
:100E2000A20DFF3E031D0D2F152FA11F182F192FE7
:100E30000A2F23181C2F1D2F232FFF30A0057F30D2
:100E4000A105FF30A2050310A30C2308A500A601ED
:100E5000A70110300310A50DA60DA70DFF3E031D21
:100E60002A2F2508A0042608A1042708A204240884
:100E7000031D3B2F3C2FA2170800003083120313E1
:100E8000871A0130A2000030071A0130A300013098
:100E90000310A30DFF3E031D482F0030051A01303B
:100EA000A40002300310A40DFF3E031D522F00309A
:100EB00009190130A50003300310A50DFF3E031DE5
:100EC0005C2F003089180130A60004300310A60DF5
:100ED000FF3E031D662F003009180130A7000530C2
:100EE0000310A70DFF3E031D702F0030871901303E
:100EF000A80006300310A80DFF3E031D7A2F003016
:100F00000718803028042704260425042404230419
:100F10002204A9002908EC00A12F902F902F902FD8
:100F20000130A0000030A100B22FB22F6330A0002A
:100F30000030A100B22FB22FA001A101B22FB22F19
:100F4000B22F6C08003A0319902F013A0319902F21
:100F5000813A0319902F013A0319902F7E3A031911
:100F6000962F9C2F080083160313861005108510FA
:100F700005110A128A1550260A128A110A128A15B8
:100F80003A260A128A110A128A156A260A128A1148
:100F90000A128A1547260A128A110A128A15A026F1
:100FA0000A128A110A128A15B4260A128A11883086
:100FB00083120313A0001330A1000A128A15C92658
:100FC0000A128A110A128A155B260A128A11E82F60
:100FD0000A128A1115200A128A11E82FE82F0A1224
:100FE0008A11122883120313A00020089900F82FF9
:100FF00083160313981CFD2FFE2FF82FFF2F0800D8
:1010000008308A000408840A8207003425346334D7
:021010000034AA
:101C74008316031307178717080064008001840A7A
:101C84000406031900340406402E831603130612B7
:101C94008612061386138710071108008316031390
:101CA40009148914091505160714871507168716CC
:101CB40008008316031306148B170B168B1047307A
:101CC40081008B160B113C30831203138100080032
:101CD4002430831603139800903083120313980062
:101CE4000C308316031399008B170B178C160800FE
:101CF4007E088A007F0882000A128A157A260A1250
:101D04008A158000840A04087D0603190034FF0A3A
:101D14000319FE0A7E2E30343134323433343434F1
:101D24003534363437343834393441344234433436
:101D3400443445344634CD344C3440340C3083126E
:101D44000313970032309500643083160313920016
:101D54000C30831203139D0032309B0092019101D9
:101D6400121508008B170B17831203130C1083161C
:101D740003138514051007309F0088018312031391
:101D84000510851490018F018E0110100800CC2ECF
:101D94000000CC2E013083120313A0020030031C78
:101DA400A103A102FF302106031DDA2EFF30200615
:101DB400031DDD2EDE2ECA2EDF2E08008312031330
:101DC400A401A501E52E201CE82EE92EEF2E220801
:101DD400A4070318A50A2308A50701300310A20DC0
:101DE400A30DFF3E031DF02E01300310A10CA00C27
:101DF400FF3E031DF72E21082004031D022F032F8D
:101E0400E52E042F2508A101A1072408A001A0079D
:101E14000B2F080083120313BB01B71F122F132FBC
:101E24001C2FB609B709B60A0319B70ABB01031474
:101E3400BB0D1C2F3608A0003708A100A2018E306C
:101E4400B9003908A3003B08BA003A08A4000A12F2
:101E54008A11C0260A128A15831203132008B600B9
:101E64002108B7002208B800372F0800F901F5014E
:101E7400F601F701F8018313633084006E300A120F
:101E84008A153F260A128A15A0308400B3300A123C
:101E94008A153F260A128A15C630FD000E30FE0050
:101EA4008D30FF00B33084000A128A157E260A1290
:101EB4008A150A128A1103200A128A15EE00830178
:101EC4000A128A11B32F831203132108803AFF00E8
:101ED40080307F02031D702F01302002031C732FFA
:101EE400742F7B2F83120313061686122008950085
:101EF400832F83120313061286162003FF3A9500DC
:101F0400832F2308803AFF0080307F02031D8C2F2B
:101F140001302202031C8F2F902F972F831203135B
:101F24000617861322089B009F2F831203130613A0
:101F340086172203FF3A9B009F2F08008C1EA32FB5
:101F4400A42FD32F1A08F0007008F5007508013A81
:101F5400031DAD2FAE2FB22F1930F0007008EE0024
:101F64007508023A031DB72FB82FBC2F1E30F0009E
:101F74007008EE007508033A031DC12FC22FC62F47
:101F84003230F0007008EE007508043A031DCB2FC0
:101F9400CC2FD12F3730F0007008EE00D12F8C12E7
:101FA400F42F0B1DD62FD72FDB2F3C3081000B11C4
:101FB400F42F8B1CDE2FDF2FEC2F6908031DE32F7A
:101FC400EA2F0130E3070318E40A0030E407EA2F9C
:101FD4008B10F42F0B1CEF2FF02FF42F0B10F42F7A
:101FE400F42FF42F0C107408FF0073088A00720891
:0C1FF4008400710E8300FE0E7E0E0900BA
:02400E0029FF88
:00000001FF
