:060000000A128A11122809
:10000800FE00030E83120313DF000408E0000A0851
:10001800E1007F08E2000A128A15592A0A168A1195
:100028003B2D8316031386100510851009148914B7
:10003800091505160A168A11EE230A128A110A16DC
:100048008A1114250A128A1183160313A3012F306B
:10005800E9006908A40001300A168A11B2260A12BA
:100068008A1183160313A3012830E9006908A40044
:1000780002300A168A11B2260A128A110A168A1141
:10008800E9230A128A110A168A111A240A128A11F5
:100098000A168A11F7230A128A110A168A11C42429
:1000A8000A128A110A168A1170240A128A118830D3
:1000B80083160313A0001330A1000A168A11AD2479
:1000C8000A128A110B300A128A11E2260A128A11C0
:1000D800831603171B0883160313A101A1078316B0
:1000E80003171A0883160313A001A0078316031722
:1000F8001D0883160313A301A307831603171C08FF
:1001080083160313A201A2070A168A1146270A12A8
:100118008A110A168A110C240A128A110A168A11DF
:1001280098240A128A110A168A1193270A128A1128
:100138009D280A128A1187210A128A11831603132D
:100148005908FF3A013E283EE90069088312031363
:10015800EA000A128A1187210A128A1183160313E8
:100168005908283EE900690883120313EB006A085E
:1001780083160313E900EA016908A0006A08A100D0
:10018800831203136B0883160313EB00EC016B084F
:10019800A2006C08A3000A168A1146270A128A11BF
:1001A800073083160313E9006908D5008312031387
:1001B800680883160313D701D70783120313670848
:1001C80083160313D601D6070330EA006A08D8005D
:1001D80002300A128A1558200A128A11073083162B
:1001E8000313E9006908D5000310831203130918E3
:1001F800031400300318013083160313EA00EB01DF
:100208006A08D6006B08D700D8010314D80D01304E
:100218000A128A1558200A128A1108308316031305
:10022800E9006908D5000310831203138918031421
:1002380000300318013083160313EA00EB016A0843
:10024800D6006B08D700D8010314D80D01300A1264
:100258008A1558200A128A11093083160313E900F7
:100268006908D50003108312031309190314003019
:100278000318013083160313EA00EB016A08D6005D
:100288006B08D700D8010314D80D01300A128A155B
:1002980058200A128A110A3083160313E9006908E4
:1002A800D500031083120313051A03140030031832
:1002B800013083160313EA00EB016A08D6006B08C5
:1002C800D700D8010314D80D01300A128A15582016
:1002D8000A128A1183120313680883160313AF01E5
:1002E800AF0783120313670883160313AE01AE0723
:1002F8001D300A128A11E2260A128A119D289D28A9
:100308000A128A111228003083160313E3004030C2
:10031800E4004030E5000030E6008030E7003F3080
:10032800E800003083120313871A01308316031381
:10033800DB00003083120313071A013083160313FE
:10034800DC0001300310DC0DFF3E031DA629003040
:1003580083120313051A013083160313DD000230DC
:100368000310DD0DFF3E031DB42900308312031373
:100378000919013083160313DE0003300310DE0D64
:10038800FF3E031DC2290030831203138918013070
:1003980083160313DF0004300310DF0DFF3E031D37
:1003A800D029003083120313091801308316031370
:1003B800E00005300310E00DFF3E031DDE2900308C
:1003C800831203138719013083160313E1000630E3
:1003D8000310E10DFF3E031DEC29003083120313C7
:1003E8000718803083160313610460045F045E04F9
:1003F8005D045C045B04E200620883160317AA002C
:10040800831203130919092A0A2A132A89180D2A9B
:100418000E2A132A83160313ED01EE01532A091835
:10042800162A172A222A89181A2A1B2A222AFF3052
:1004380083160313ED00FF30EE00532A0918252A0E
:10044800262A312A891C292A2A2A312AFE3083168B
:100458000313ED00FF30EE00532A051A342A352A1B
:10046800402A0919382A392A402A013083160313E9
:10047800ED000030EE00532A051A432A442A532A75
:10048800091D472A482A532A023083160313ED0010
:100498000030EE00532A532A532A532A532A831230
:1004A800650983160313DB00831203136609831699
:1004B8000313DC00DB0A0319DC0A6D085B078312EF
:1004C8000313E300831603136E0803186E0A5C0710
:1004D80083120313E400831603136E0883120313B5
:1004E800E601E607831603136D0883120313E5017B
:1004F800E507831603136E08B701B7076D08B60141
:10050800B6070A168A1190250A128A118316031350
:100518003608BF003708C0003808C1006308BC00AF
:100528006408BD006508BE000A128A15D0250A12A3
:100538008A11831603133C08CF003D08D0003E08FB
:10054800D10083120313640883160313B701B70796
:1005580083120313630883160313B601B6070A163A
:100568008A1190250A128A11831603133608BF00D0
:100578003708C0003808C1006608BC006708BD001D
:100588006808BE000A128A15D0250A128A11831635
:1005980003133C08CC003D08CD003E08CE000A12EB
:1005A8008A1156240A128A11831603134C08A800CC
:1005B8004D08A9004E08AA000A128A1594230A12A7
:1005C8008A11831603132908DA01DA072808D901E2
:1005D800D907EE2A08009A3083120313D100993004
:1005E800D2003E30D300CE1FFA2AFB2A012BCB09BA
:1005F800CC09CB0A0319CC0A012B4D09CF004E09AF
:10060800D000CF0A0319D00A4B084F07AA004C089C
:1006180003184C0A5007AB000A168A1164250A12FF
:100628008A11831203132A0883160317B60083124C
:1006380003132B0883160317B700831203132C0820
:1006480083160317B800130883120313AE0083162A
:100658000317140883120313AF0083160317150832
:1006680083120313B0000030BE008030BF003F305B
:10067800C0005108F0005208F1005308F2000A16B1
:100688008A1100240A128A11700883120313C10008
:100698007108C2007208C3000A128A119C250A1246
:1006A8008A11831203133E08B1003F08B2004008C4
:1006B800B3000A128A15E2240A128A11831203135C
:1006C8002E08BE002F08BF003008C0005108AE0039
:1006D8005208AF005308B0000930AD3E84008317BC
:1006E8000008B100840A0008B200840A0008B300B8
:1006F8000A128A15E2240A128A11831203132E0899
:10070800C1002F08C2003008C3000A128A119C25B4
:100718000A128A11831203133E08831603179000E6
:10072800831203133F0883160317910083120313E0
:100738004008831603179200100883120313BE00A3
:1007480083160317110883120313BF0083160317B8
:10075800120883120313C0000F30AD3E84008317C4
:100768000008C100840A0008C200840A0008C30007
:100778000A128A119C250A128A11831203133E0851
:1007880083160317BC00831203133F08831603174D
:10079800BD0083120313400883160317BE00BC3044
:1007A80083120313CF004F08F00014300A168A1181
:1007B800BC250A128A118316031710089300110822
:1007C8009400120895002D0883120313B1008316B4
:1007D80003172E0883120313B200831603172F087A
:1007E80083120313B300831603171008831203132D
:1007F800AE0083160317110883120313AF00831684
:100808000317120883120313B0000A128A15E22490
:100818000A128A11831203132E08C1002F08C2007E
:100828003008C3000F30AD3E840083170008B100C4
:10083800840A0008B200840A0008B3000330AD3E01
:1008480084000008AE00840A0008AF00840A00088B
:10085800B0000A128A15E2240A128A1183120313BD
:100868002E08BE002F08BF003008C0000A128A11E7
:100878009C250A128A11831203133E08F8003F08C8
:10088800F9004008FA000A128A15EE220A128A11A3
:10089800790883120313CC01CC077808CB01CB0766
:1008A800552C0800831603134C08D2004D08D300BA
:1008B8004E08D4000310530D540DD5005508D80028
:1008C8004F08D2005008D3005108D4000310530D2C
:1008D800540DD5005508D7005808031D742C852CD5
:1008E800570858020318792C7A2C8D2C5803FF3A94
:1008F8005707D20019305202031C832C842C8D2CEC
:10090800852C4F08CC005008CD005108CE009B2DF7
:100918009B2D5708031D912CA12C5808570203182A
:10092800962C972CA22C5703FF3A5807D20019305F
:100938005202031CA02CA12CA22C9B2D0630D20005
:100948005208D600CE1FA92CAA2CAB2CD617D11F23
:10095800AE2CAF2CB02C5617CD17FF30CC05FF307E
:10096800CD050030CE05D017FF30CF05FF30D005BC
:100978000030D105570858020318C32CC42CF52C95
:10098800C52C01300310CF0DD00DD10DFF3E031D36
:10099800C62C0130D702570858060319D42CD52C79
:1009A800ED2C0130D60256080739031DDC2CDD2C4E
:1009B800C52CED2CED2CED2C01300310CE0CCD0CFC
:1009C800CC0CFF3E031DE12C0130D2005208D807A1
:1009D800ED2C58085706031DF22CF32CE02C2C2D77
:1009E8002C2D580857020318FA2CFB2C2C2DFC2C04
:1009F80001300310CC0DCD0DCE0DFF3E031DFD2C97
:100A08000130D8025708580603190B2D0C2D242D38
:100A18000130D60256080739031D132D142DFC2C5E
:100A2800242D242D242D01300310D10CD00CCF0CF3
:100A3800FF3E031D182D0130D2005208D707242D80
:100A480058085706031D292D2A2D172D2C2D2C2D1E
:100A5800D61F2F2D302D412DFF30CC06FF30CD066F
:100A6800FF30CE060130CC07003003180130CD0727
:100A7800003003180130CE07412D561F442D452D57
:100A8800562DFF30CF06FF30D006FF30D10601309B
:100A9800CF07003003180130D007003003180130A9
:100AA800D107562DD6014C08CF074D08031103185E
:100AB8004D0A0319602DD0074E08031103184E0A7A
:100AC8000319672DD107D11F6A2D6B2D7F2DFF309C
:100AD800CF06FF30D006FF30D1060130CF070030F7
:100AE80003180130D007003003180130D107D601B0
:100AF8000314D60D7F2D4F08A0005008A1005108FF
:100B0800A2005808D2005208A3005608D300530880
:100B1800A4000A128A154A210A128A11831603139D
:100B28002008CC002108CD002208CE009B2D08000B
:100B3800831203133E08C4003F08C5004008C600DE
:100B48000310450D460DC7004708CA004108C400F8
:100B58004208C5004308C6000310450D460DC700EE
:100B68004708C9004A08031DBA2DCB2D49084A0277
:100B78000318BF2DC02DD32D4A03FF3A4907C400DF
:100B880019304402031CC92DCA2DD32DCB2D410881
:100B9800BE004208BF004308C000E12EE12E49080C
:100BA800031DD72DE72D4A0849020318DC2DDD2D3A
:100BB800E82D4903FF3A4A07C40019304402031CD0
:100BC800E62DE72DE82DE12E0630C4004408C800C4
:100BD800C01FEF2DF02DF12DC817C31FF42DF52DD3
:100BE800F62D4817BF17FF30BE05FF30BF05003090
:100BF800C005C217FF30C105FF30C2050030C3056C
:100C080049084A020318092E0A2E3B2E0B2E0130E2
:100C18000310C10DC20DC30DFF3E031D0C2E013084
:100C2800C90249084A0603191A2E1B2E332E013011
:100C3800C80248080739031D222E232E0B2E332EF7
:100C4800332E332E01300310C00CBF0CBE0CFF3EF8
:100C5800031D272E0130C4004408CA07332E4A0852
:100C68004906031D382E392E262E722E722E4A085A
:100C780049020318402E412E722E422E01300310D5
:100C8800BE0DBF0DC00DFF3E031D432E0130CA022D
:100C980049084A060319512E522E6A2E0130C802FD
:100CA80048080739031D592E5A2E422E6A2E6A2EDD
:100CB8006A2E01300310C30CC20CC10CFF3E031D89
:100CC8005E2E0130C4004408C9076A2E4A08490646
:100CD800031D6F2E702E5D2E722E722EC81F752E5C
:100CE800762E872EFF30BE06FF30BF06FF30C006C7
:100CF8000130BE07003003180130BF070030031869
:100D08000130C007872E481F8A2E8B2E9C2EFF305D
:100D1800C106FF30C206FF30C3060130C1070030EC
:100D280003180130C207003003180130C3079C2E96
:100D3800C8013E08C1073F08031103183F0A0319F9
:100D4800A62EC207400803110318400A0319AD2E46
:100D5800C307C31FB02EB12EC52EFF30C106FF300A
:100D6800C206FF30C3060130C10700300318013046
:100D7800C207003003180130C307C8010314C80DA7
:100D8800C52E4108F0004208F1004308F2004A0865
:100D9800C4004408F3004808C5004508F4000A12D6
:100DA8008A15CF200A128A11700883120313BE0015
:100DB8007108BF007208C000E12E080083160313F3
:100DC800B400AE30B0003008B600D62F3B08253A44
:100DD8000319EF2EF02EF72E3B080A168A112A2443
:100DE8000A128A11D62FB301102FEC2F2A2F2A2F7F
:100DF8003608840083130008B0003008BB000230B6
:100E0800B0003008B607082F3B080A168A112A24B2
:100E18000A128A11D62F2A2F013083160313B4071A
:100E2800FF30340784000A168A1100200A128A113A
:100E3800BB00003A0319EC2F633A0319FC2E073A5A
:100E480003192A2F0D3A03192A2F082F8316031383
:100E58003608840083130008B700840A0008B80025
:100E68000230B0003008B607B81F3B2F3C2F462F82
:100E78000330B0003008B304B709B809B70A03193A
:100E8800B80A462FBB010314BB0D3B08053A031DE6
:100E98004E2F4F2F512F792F792F3B08B000300755
:100EA800013E84000A168A1100200A128A11B10034
:100EB8000A168A1100200A128A11B2003208380272
:100EC800031D682F3108370203186B2F6C2F6E2F04
:100ED800792F792F0130B0003008BB073B08053A5D
:100EE800031D772F782F512F792F330803390319D2
:100EF8007E2F7F2F862F2D300A168A112A240A1258
:100F08008A11862F831603133B08B0003008B500FA
:100F1800C82F0A30A8000030A9003508B0003007F3
:100F2800013E84000A168A1100200A128A11A000C4
:100F38000A168A1100200A128A11A1003808A30192
:100F4800A3073708A201A2070A128A1508200A1265
:100F58008A11831603132108AB01AB072008AA01E5
:100F6800AA070A168A1125260A128A11831603135C
:100F78002808303EB1003108BB003B080A168A1128
:100F88002A240A128A11C82FFF3083160313B000CF
:100F98003008B5073508FF3A031DD32FD42F8D2FFE
:100FA800D62FD62F013083160313B407FF3034072A
:100FB80084000A168A1100200A128A11B00030082B
:100FC800BB00BB08031DE92FEA2FEA2EEC2FEC2FFC
:100FD80008007E088A007F0882000A128A11ED271D
:100FE8000A128A118000840A04087D060319003455
:100FF800FF0A0319FE0AF12F64008001840A04061F
:10100800031900340406012883160313A501A60159
:10101800210820040319112812285028A7010314B5
:10102800A70D222801300310A00DA10DFF3E031DBE
:1010380017280130A4002408A7072228A11F252863
:10104800262816282828282801300310A50DA60DC3
:10105800FF3E031D292821082302031D35282008E7
:101068002202031C3828392841282008A202210816
:10107800031CA303A3022514412801300310A10C6B
:10108800A00CFF3E031D42280130A702031D4D2876
:101098004E282828502850282608A101A1072508ED
:1010A800A001A0075728080083160313DB005B087C
:1010B800013A031D6028612867285508803ED90039
:1010C8005908DA0074285B08023A031D6C286D2859
:1010D80074285508C03ED9005908DA0074287428C5
:1010E8005A080A168A114A240A128A158316031303
:1010F800DC01C7280030BF000030BE000030BD0052
:101108000A30BC005C03FF3A5807FF3ED900590873
:10111800C7000A300A168A116B260A128A15831626
:1011280003134A08B0004908AF004808AE00470852
:10113800AD005608B1005708B200B301B4010A1255
:101148008A153A240A128A15831603133008C30035
:101158002F08C2002E08C1002D08C0000A128A15E7
:10116800C7210A128A15831603133C08303E0A1653
:101178008A115D240A128A15013083160313D900D7
:101188005908DC07C72858085C02031CCC28CD285E
:101198007E28CE2808007308031DD328DB28720890
:1011A80071047004031DD928DA28F128DB280030DF
:1011B800F0000030F1000030F20049294929F128F7
:1011C8000130F5007508F30701300310F20CF10C3B
:1011D800F00CFF3E031DE928F128FE307205031DBF
:1011E800F628F728E4280F290F290130F50075089B
:1011F800F3070130F007003003180130F107003021
:1012080003180130F20701300310F20CF10CF00C56
:10121800FF3E031D0829FF307205031D14291529F7
:10122800F928222922290130F30201300310F00D98
:10123800F10DF20DFF3E031D1A292229F11F252960
:1012480026291729731829292A293029FF30F0055A
:101258007F30F105FF30F2050310F30C7308F50039
:10126800F601F70110300310F50DF60DF70DFF3EEE
:10127800031D37297508F0047608F1047708F2048D
:101288007408031D48294929F21708008316031317
:101298002308031D50295829220821042004031D6E
:1012A800562957296E2958290030A0000030A1007E
:1012B8000030A200C629C6296E290130A5002508DC
:1012C800A30701300310A20CA10CA00CFF3E031DC4
:1012D80066296E29FE302205031D732974296129A8
:1012E8008C298C290130A5002508A3070130A00707
:1012F800003003180130A107003003180130A2079D
:1013080001300310A20CA10CA00CFF3E031D85297F
:10131800FF302205031D9129922976299F299F29AB
:101328000130A30201300310A00DA10DA20DFF3E54
:10133800031D97299F29A11FA229A32994292318AE
:10134800A629A729AD29FF30A0057F30A105FF30C8
:10135800A2050310A30C2308A500A601A7011030BD
:101368000310A50DA60DA70DFF3E031DB4292508E2
:10137800A0042608A1042708A2042408031DC529DF
:10138800C629A217080083160313C601C31FCD2957
:10139800CE29DD29C009C109C209C309C00A031938
:1013A800C10A0319C20A0319C30AC6010314C60DE8
:1013B800DD29BF1FE029E129ED29BC09BD09BE09C6
:1013C800BF09BC0A0319BD0A0319BE0A0319BF0ADB
:1013D800ED293F083E043D043C040319F429F5298E
:1013E8003F2AC5010314C50D072A0130C4000310A4
:1013F800BC0DBD0DBE0DBF0DC40BFB290130C400D3
:101408004408C507072ABF1F0A2A0B2AF9290D2AEB
:101418000D2A3F084302031D1B2A3E084202031DF2
:101428001B2A3D084102031D1B2A3C084002031CDD
:101438001E2A1F2A2E2A3C08C0023D08031C3D0F05
:10144800C1023E08031C3E0FC2023F08031C3F0FA7
:10145800C3022E2A01300310BF0CBE0CBD0CBC0CFD
:10146800FF3E031D2F2A0130C502031D3C2A3D2AD9
:101478000D2A3F2A3F2A4608031D432A4F2AC0093E
:10148800C109C209C309C00A0319C10A0319C20A5A
:101498000319C30A4F2A4308BF004208BE00410887
:1014A800BD004008BC00582A08000A128A15BE264A
:1014B8000A128A15831203134B08FF3A013E283E8D
:1014C800DB005B08EA000A128A15BE260A128A1592
:1014D800831203134B08283EDB005B08EB006A0805
:1014E800DB00DC015B08F0005C08F1006B08DD0044
:1014F800DE015D08F2005E08F3000A168A11EC2589
:101508000A128A15831203138C1E8B2A8C2A922A9C
:101518001A08DB005B08EC008C12E12A0B1D952AE7
:10152800962AD52A3C3081000B116908DB00DC01C2
:101538005B08E7005C08E800E9016808CC01CC0713
:101548006708CB01CB07831603171F088312031301
:10155800CE01CE07831603171E0883120313CD018D
:10156800CD070A128A11EF220A128A158312031371
:101578004C088316031799019907831203134B0824
:10158800831603179801980719089B019B071808E9
:101598009A019A0719089D019D0718089C019C0744
:1015A800E12A8B1CD82AD92AE12A0130DB005B0802
:1015B800E9078B10E12AE12AE12A83120313620862
:1015C800FF0061088A00600884005F0E8300FE0E39
:1015D8007E0E0900780883120313A0007908A10081
:1015E8007A08A2000310210D220DA3002308A900E8
:1015F800A908031D002B012B0B2B0030FB0000302A
:10160800FA000030F9000030F800932B932B78088B
:10161800A0007908A1007A08A20017300310A20CD4
:10162800A10CA00CFF3E031D122B2008A3002308C9
:10163800A400F917FF30F805FF30F9050030FA0566
:101648007808A5007908A6007A08A700A8018E30B6
:10165800A902A91F302B312B562B2908803A8F3E1F
:101668000318372B382B432B0030FB000030FA00CF
:101678000030F9000030F800932B932B432B0130F6
:101688000310A80CA70CA60CA50CFF3E031D442BA9
:101698000130A0002008A907031D532B542B432B0E
:1016A8007A2B7A2B18302902031C5B2B5C2B732BAB
:1016B8000030FB000030FA000030F9000030F8007C
:1016C800932B932B732B0130A0000310A50DA60DAF
:1016D800A70DA80DA00B692B0130A902732BA9082F
:1016E800031D772B782B672B7A2B7A2B2408031D65
:1016F8007E2B8A2BA509A609A709A809A50A0319FB
:10170800A60A0319A70A0319A80A8A2B2808FB00A6
:101718002708FA002608F9002508F800932B080086
:10172800831603132808AC002908AD002A08AE0068
:1017380003102D0D2E0DAF002F08B500B508031DA1
:10174800A62BA72BB12B0030AB000030AA0000302D
:10175800A9000030A800392C392C2808AC00290829
:10176800AD002A08AE0017300310AE0CAD0CAC0C5F
:10177800FF3E031DB82B2C08AF002F08B000A91797
:10178800FF30A805FF30A9050030AA052808B100D8
:101798002908B2002A08B300B4018E30B502B51F7B
:1017A800D62BD72BFC2B3508803A8F3E0318DD2B20
:1017B800DE2BE92B0030AB000030AA000030A90076
:1017C8000030A800392C392CE92B01300310B40C57
:1017D800B30CB20CB10CFF3E031DEA2B0130AC0078
:1017E8002C08B507031DF92BFA2BE92B202C202CEC
:1017F80018303502031C012C022C192C0030AB00C8
:101808000030AA000030A9000030A800392C392C7B
:10181800192C0130AC000310B10DB20DB30DB40D8D
:10182800AC0B0F2C0130B502192CB508031D1D2C6B
:101838001E2C0D2C202C202C3008031D242C302C81
:10184800B109B209B309B409B10A0319B20A0319F3
:10185800B30A0319B40A302C3408AB003308AA00C1
:101868003208A9003108A800392C08008316031390
:10187800B701B01F402C412C502CAD09AE09AF095F
:10188800B009AD0A0319AE0A0319AF0A0319B00A61
:10189800B7010314B70D502CB41F532C542C642CCF
:1018A800B109B209B309B409B10A0319B20A031993
:1018B800B30A0319B40A0130B5003508B706642C19
:1018C8000030BB000030BA000030B9000030B8006A
:1018D80030082F042E042D040319732C742CC82CE3
:1018E800B6010314B60D862C0130B5000310AD0DFA
:1018F800AE0DAF0DB00DB50B7A2C0130B500350823
:10190800B607862CB01F892C8A2C782C8C2C8C2C12
:101918000130B5000310B80DB90DBA0DBB0DB50BEC
:101928008E2C30083402031DA32C2F083302031D0C
:10193800A32C2E083202031DA32C2D083102031CF0
:10194800A62CA72CB72C2D08B1022E08031C2E0F8D
:10195800B2022F08031C2F0FB3023008031C300FEC
:10196800B4023814B72C01300310B00CAF0CAE0C15
:10197800AD0CFF3E031DB82C0130B602031DC52C6B
:10198800C62C8C2CC82CC82C3708031DCC2CD82C62
:10199800B809B909BA09BB09B80A0319B90A031978
:1019A800BA0A0319BB0AD82C3B08B0003A08AF00A2
:1019B8003908AE003808AD00E12C08008312031383
:1019C8002E08B4002F08B5003008B6000310350DF6
:1019D800360DB7003708B800B808031DF42CF52CED
:1019E800FD2C0030AE000030AF000030B000CF2D2D
:1019F800CF2D3108B4003208B5003308B600031003
:101A0800350D360DB7003708BD00BD08031D0D2D77
:101A18000E2D162D0030AE000030AF000030B000A3
:101A2800CF2DCF2D3D087B3EB4003408B8072E08D3
:101A3800B4002F08B5003008B60010300310B60CFB
:101A4800B50CB40CFF3E031D222D3408B70037082F
:101A5800BD003108B4003208B5003308B6001030B4
:101A68000310B60CB50CB40CFF3E031D342D34081E
:101A7800B7003708BD068030B4003408BD05AF177D
:101A8800B217FF30B105FF30B2050030B3050030A2
:101A9800B9000030BA000030BB000730B400340889
:101AA800BC00562D2E1C592D5A2D6B2D3108B90707
:101AB800320803110318320A0319632DBA073308D1
:101AC80003110318330A03196A2DBB076B2D013064
:101AD8000310B00CAF0CAE0CFF3E031D6C2D013093
:101AE8000310B10DB20DB30DFF3E031D742D01306F
:101AF800BC02031D802D812D562D822D0930B40086
:101B08003408BC00872D2E1C8A2D8B2D9C2D310866
:101B1800B907320803110318320A0319942DBA07BA
:101B2800330803110318330A03199B2DBB079C2D97
:101B380001300310B00CAF0CAE0CFF3E031D9D2D01
:101B480001300310BB0CBA0CB90CFF3E031DA52DC8
:101B58000130BC02031DB12DB22D872DB32D3908DC
:101B6800F0003A08F1003B08F2003808B4003408E5
:101B7800F3003D08B5003508F4000A128A15CF2095
:101B88000A128A15700883120313AE007108AF0099
:101B98007208B000CF2D0800831603133C08C2005A
:101BA8003D08C3003E08C4000310430D440DC500A2
:101BB8004508C600C608031DE22DE32DEB2D0030B5
:101BC800BC000030BD000030BE00BD2EBD2E3F0859
:101BD800C2004008C3004108C4000310430D440D6F
:101BE800C5004508CB00CB08031DFB2DFC2D042E9A
:101BF8000030BC000030BD000030BE00BD2EBD2E40
:101C08004B087B3EC2004208C6073C08C2003D089C
:101C1800C3003E08C40010300310C40CC30CC20C2F
:101C2800FF3E031D102E4208C5004508CB003F08A3
:101C3800C2004008C3004108C40010300310C40C9F
:101C4800C30CC20CFF3E031D222E4208C5004508E6
:101C5800CB068030C2004208CB05BD17C017FF3045
:101C6800BF05FF30C0050030C1050030C700003097
:101C7800C8000030C9000730C2004208CA00442E1C
:101C88003C1C472E482E592E3F08C7074008031111
:101C98000318400A0319512EC807410803110318F5
:101CA800410A0319582EC907592E01300310BE0CDA
:101CB800BD0CBC0CFF3E031D5A2E01300310BF0D96
:101CC800C00DC10DFF3E031D622E0130CA02031D67
:101CD8006E2E6F2E442E702E0930C2004208CA00A4
:101CE800752E3C1C782E792E8A2E3F08C70740088F
:101CF80003110318400A0319822EC807410803116B
:101D08000318410A0319892EC9078A2E01300310C6
:101D1800BE0CBD0CBC0CFF3E031D8B2E0130031006
:101D2800C90CC80CC70CFF3E031D932E0130CA0214
:101D3800031D9F2EA02E752EA12E4708A00048082F
:101D4800A1004908A2004608C2004208A3004B08A7
:101D5800C3004308A4000A128A154A210A128A15E8
:101D6800831603132008BC002108BD002208BE000A
:101D7800BD2E0800003083120313D5004030D60072
:101D88004030D7000030D8008030D9003F30DA002A
:101D98000030871A0130CD000030071A0130CE001C
:101DA80001300310CE0DFF3E031DD52E0030051A5D
:101DB8000130CF0002300310CF0DFF3E031DDF2E90
:101DC800003009190130D00003300310D00DFF3E58
:101DD800031DE92E003089180130D10004300310AA
:101DE800D10DFF3E031DF32E003009180130D2003B
:101DF80005300310D20DFF3E031DFD2E003087195C
:101E08000130D30006300310D30DFF3E031D072F0A
:101E180000300718803053045204510450044F0412
:101E28004E044D04D400540883160317AA008312E5
:101E380003130919202F212F2A2F8918242F252F22
:101E48002A2F83160313ED01EE016A2F09182D2F8F
:101E58002E2F392F8918312F322F392FFF30831623
:101E68000313ED00FF30EE006A2F09183C2F3D2FB9
:101E7800482F891C402F412F482FFE30831603130B
:101E8800ED00FF30EE006A2F051A4B2F4C2F572F0D
:101E980009194F2F502F572F013083160313ED00C8
:101EA8000030EE006A2F051A5A2F5B2F6A2F091D82
:101EB8005E2F5F2F6A2F023083160313ED00003068
:101EC800EE006A2F6A2F6A2F6A2F6A2F831265091C
:101ED800CD006609CE00CD0A0319CE0A8316031376
:101EE8006D08831203134D07E300831603136E086E
:101EF80003186E0A831203134E07E40083160313B4
:101F08006E0883120313E601E607831603136D08B0
:101F180083120313E501E507831603136E08831282
:101F28000313AB01AB07831603136D088312031366
:101F3800AA01AA070A168A1164250A128A158312A9
:101F480003132A08B1002B08B2002C08B300550867
:101F5800AE005608AF005708B0000A128A15E224EE
:101F68000A128A15831203132E08C1002F08C20013
:101F78003008C3006408AB01AB076308AA01AA07CD
:101F88000A168A1164250A128A15831203132A086D
:101F9800B1002B08B2002C08B3005808AE0059084D
:101FA800AF005A08B0000A128A15E2240A128A15EC
:101FB800831203132E08BE002F08BF003008C0008C
:101FC8000A128A119C250A128A15831203133E08E5
:101FD800F8003F08F9004008FA000A128A15EE22B4
:101FE8000A128A15790883120313CC01CC077808E2
:101FF800CB01CB07FF2F080010308A000408840AA1
:1020080082070034013400340A3400346434003464
:10201800E834033410342734B434AE34BF34DA34FB
:10202800B334F534CA34BC34BB34AF34CD34EA34B9
:10203800B334C93421340D340A3400345334703481
:102048006534653464343A34253464340D340A34E0
:102058000034533470346534653464343A340034AD
:102068004334413452342034313400342534633419
:02207800003432
:1027D20083160313071787170800831603130511BF
:1027E20085128511880107309F00080083160313A4
:1027F2000612861206138613871007110800720844
:10280200710470040319062C072C0A2C8030F2067E
:102812000A2C0B2C08008316031306148B170B16B5
:102822008B10473081008B160B1183120313810129
:102832000800243083160313980090308312031388
:1028420098000C308316031399008B170B178C1604
:10285200080083160313A0002008831203139900B3
:10286200322C83160313981C372C382C322C392C1B
:10287200080030343134323433343434353436347D
:1028820037343834393441344234433444344534AF
:10289200463483160313A20022088312031388000E
:1028A2008512051185110A168A11F8240A168A1151
:1028B200831203138515080083160313A20022084E
:1028C2008312031388008516051185110A168A11D1
:1028D200F8240A168A1183120313851508000C3096
:1028E200831203139700323095006430831603136A
:1028F20092000C30831203139D0032309B00920130
:102902009101121508000000000014308316031311
:10291200A0002008A1008E2C8E2C0130A1022108DB
:10292200FF3A031D952C962C8E2C972C08009A307A
:1029320083160317AD00B930AE004030AF00C3308C
:10294200B0007530B1003D30B2000030B30000304D
:10295200B4000030B5000800B02C0000B02C0130EB
:1029620083160313A0020030031CA103A102FF304F
:102972002106031DBE2CFF302006031DC12CC22CD4
:10298200AE2CC32C08008B170B17831603130C14E1
:10299200831203130C1083160313891009150730D1
:1029A2009F0085018801831203130510851490018D
:1029B2008F018E0110100800831603132808A0004F
:1029C2002908A100A2018E30AB002B08A300A401AC
:1029D2000A128A154A210A168A118316031320083D
:1029E200A8002108A9002208AA00F72C0800E73055
:1029F20083160313A0000330A10021082004031D45
:102A0200032D042D062D132D132D0130A0020030AD
:102A1200031CA103A10221082004031D112D122D64
:102A2200062D132D08008312031388010A168A113A
:102A3200F8240A168A1101300A168A114A240A1643
:102A42008A1138300A168A114A240A168A110C3061
:102A52000A168A114A240A168A1106300A168A119F
:102A62004A240A168A1180300A168A114A240A1642
:102A72008A110800EF018313633084006F300A1259
:102A82008A1500200A168A1183160313ED01EE013E
:102A9200EF01831790308400C5300A128A15002096
:102AA2000A168A11D530FD001430FE003A30FF00BC
:102AB200C53084000A128A11F1270A168A1183018D
:102AC2000A128A11152883120313AD01AB1F6A2D56
:102AD2006B2D742DAA09AB09AA0A0319AB0AAD0121
:102AE2000314AD0D742D2A08F0002B08F100F20139
:102AF2008E30FC007C08F3002D08FD007D08F400F8
:102B02000A128A15CF200A168A117008831203133B
:102B1200AA007108AB007208AC008F2D0800831662
:102B22000313BB01B71F962D972DA02DB609B70928
:102B3200B60A0319B70ABB010314BB0DA02D360850
:102B4200A0003708A100A2018E30B9003908A30005
:102B52003B08BA003A08A4000A128A154A210A164A
:102B62008A11831603132008B6002108B700220831
:102B7200B800BB2D0800F30070088400831700081A
:102B820073020318C52DC62DCD2D7308F1007008F0
:102B9200840071088000CD2D7308F100F201F10963
:102BA200F209F10A0319F20A700884007208803AE5
:102BB200803C031DDE2D710800020318E12DE22D79
:102BC200EB2D7303FF3AF10070088400710883173C
:102BD2008000EB2D08007108803AFF0080307F02F0
:102BE200031DF52D01307002031CF82DF92D002E66
:102BF200831203130616861270089500082E83129C
:102C02000313061286167003FF3A9500082E730806
:102C1200803AFF0080307F02031D112E01307202C4
:102C2200031C142E152E1C2E831203130617861353
:102C320072089B00242E8312031306138617720355
:102C4200FF3A9B00242E0800831603132908280448
:102C520003192C2E2D2E632EAD010314AD0D3D2E26
:102C620001300310A80DA90DFF3E031D322E0130C5
:102C7200AC002C08AD073D2EA91F402E412E312E4F
:102C8200432E432E29082B02031D492E28082A020F
:102C9200031C4C2E4D2E542E2808AA022908031C70
:102CA200AB03AB02542E01300310A90CA80CFF3E5B
:102CB200031D552E0130AD02031D602E612E432EE1
:102CC200632E632E2B08A901A9072A08A801A807C9
:102CD2006A2E080083160313CF000030D4000030A0
:102CE200D3000030D2000130D100D001A12E4F0814
:102CF200CB00CC01CD01CE014E08A3004D08A200AD
:102D02004C08A1004B08A0005408A7005308A600D5
:102D12005208A5005108A4000A168A11FA260A16BA
:102D22008A11831603132308D4002208D300210832
:102D3200D2002008D1000130CB004B08D007A12ED1
:102D420047085002031CA62EA72E782EA82E540840
:102D5200CA005308C9005208C8005108C700B12E62
:102D6200080083160313A7002708013A031DBA2E91
:102D7200BB2EC12E2308803EA5002508A600CE2E1C
:102D82002708023A031DC62EC72ECE2E2308C03EA8
:102D9200A5002508A600CE2ECE2E26080A168A11D8
:102DA2004A240A168A11EA2E831603132408840081
:102DB2000A168A1100200A168A110A168A115D243F
:102DC2000A168A11013083160313A5002508A407E9
:102DD200EA2E83160313240884000A168A1100209F
:102DE2000A168A110038031DF72EF82ED52EF92E59
:102DF2000800003083160313AC000030AB00003033
:102E0200AA000030A900052F201C082F092F212F0E
:102E12002408A907250803110318013E0319122FDC
:102E2200AA07260803110318013E0319192FAB073D
:102E3200270803110318013E0319202FAC07212F85
:102E42000130A8000310A40DA50DA60DA70DA80B17
:102E5200232F01300310A30CA20CA10CA00CFF3EE7
:102E6200031D2B2F2308220421042004031D3A2FC3
:102E72003B2F052F3C2F2C08A3002B08A2002A0869
:102E8200A1002908A000452F08008316031321087A
:102E9200803AFF0080307F02031D512F0130200253
:102EA200031C542F552F602F83120313061686120C
:102EB2008316031320088312031395006C2F8312C9
:102EC200031306128616831603132003FF3A831296
:102ED200031395006C2F831603132308803AFF0017
:102EE20080307F02031D772F01302202031C7A2FCC
:102EF2007B2F862F83120313061786138316031361
:102F02002208831203139B00922F831203130613CA
:102F12008617831603132203FF3A831203139B00BF
:102F2200922F080083160317A401A501831203132D
:102F320010108F018E0105140A168A1184240A16B4
:102F42008A11831203130510A62F851CA92FAA2FFD
:102F5200A62F1014AC2F851CAF2FB02FB62F0C1C30
:102F6200B32FB42FAC2FB62FB62F0F08831603132F
:102F7200CC004C08D200831203130E0883160313ED
:102F8200CC004C08D3008312031310100C18CA2F64
:102F9200CB2FFD2F831603135308CC00CD0152080B
:102FA200CE00CF014E08CF00CE014C084E04D00017
:102FB2004D084F04D1002630BC008D30BD003C309E
:102FC200BE005108A901A9075008A801A8070A16BE
:102FD2008A11DD240A168A11831603132808BF00FA
:102FE2002908C0002A08C1000A128A15D0250A162B
:0E2FF2008A11FF2FFF2FFF2F0C10FF2F08005A
:02400E0029FF88
:00000001FF
