:060000000A128A11122809
:10000800FE00030EF1000408F2000A08F300831250
:1000180003137F08F4000A128A1115280A128A119C
:10002800FE288C1E1828192848281A08F00070087D
:10003800F5007508013A031D2228232827280A30CD
:10004800F0007008D0007508023A031D2C282D28EE
:1000580031282830F0007008D0007508033A031DD5
:10006800362837283B284630F0007008D00075083D
:10007800043A031D4028412846286430F0007008DF
:10008800D00046288C1269280B1D4B284C28502874
:100098003C3081000B1169288B1C53285428612897
:1000A8003908031D58285F280130A2070318A30A3E
:1000B8000030A3075F288B1069280B1C642865286B
:1000C80069280B106928692869280C107408FF0032
:1000D80073088A0072088400710E8300FE0E7E0E7B
:1000E8000900831603138610051085100A128A1159
:1000F800A3210A128A110A128A11C8210A128A1126
:100108000A128A1184210A128A110A128A11B72145
:100118000A128A110A128A115D210A128A110A1218
:100128008A1134210A128A11883083120313D100EC
:100138001330D2000A128A111D210A128A110A12DA
:100148008A1194210A128A11A928831203135008CC
:10015800D500D6015508D1005608D2005008D7005E
:10016800D8015708D3005808D4000A128A11C320AE
:100178000A128A11A928A9280A128A111228831298
:1001880003135208803AFF0080307F02031DCE28F7
:1001980001305102031CD128D228D9288312031315
:1001A8000616861251089500E128831203130612D9
:1001B80086165103FF3A9500E1285408803AFF005B
:1001C80080307F02031DEA2801305302031CED280A
:1001D800EE28F528831203130617861353089B008D
:1001E800FD2883120313061386175303FF3A9B0057
:1001F800FD280800F901F501F601F701F80183135C
:10020800203084003D300A128A11C0210A128A1156
:100218005130FD000130FE004930FF003D308400C0
:100228000A128A1175210A128A1183010A128A1187
:100238007528202900002029013083120313D102D8
:100248000030031CD203D202FF305206031D2E29B0
:10025800FF305106031D312932291E293329080090
:100268008B170B17831203130C10831603138514B3
:10027800051007309F0088018312031305108514A9
:1002880090018F018E01101008003034313432345F
:1002980033343434353436343734383439344134FB
:1002A80042344334443445344634CD344C344034F9
:1002B8001E340C30831203139700323095006430DB
:1002C8008316031392000C30831203139D003230FF
:1002D8009B0092019101121508007E088A007F0890
:1002E80082000A128A1171210A128A118000840A76
:1002F80004087D0603190034FF0A0319FE0A75294C
:100308002430831603139800903083120313980047
:100318000C308316031399008B170B178C160800E3
:100328008316031306148B170B168B1047308100A6
:100338008B160B113C3083120313810008008316BF
:1003480003130914891409150516071487150716C8
:100358008716080001308A000408840A82070034DE
:1003680025346334003483160313061286120613E9
:10037800861387100711080064008001840A0406A8
:10038800031900340406C1298316031307178717B6
:0203980008005B
:02400E0029FF88
:00000001FF
