:060000000A128A11122809
:10000800FE00030EF1000408F2000A08F300831250
:1000180003137F08F4000A128A15C92E0A128A15DA
:100028004A2E8316031386100510851009148914A7
:1000380009150516071487150716871686150A1257
:100048008A1553250A128A110A128A1523260A12BA
:100058008A1183120313A3011A3083160313E000D5
:10006800600883120313A40001300A128A153B2783
:100078000A128A1183120313A30113308316031380
:10008800E000600883120313A40002300A128A15E4
:100098003B270A128A110A128A1546250A128A1162
:1000A8000A128A1582250A128A110A128A155C25F3
:1000B8000A128A110A128A15C7250A128A110A1207
:1000C8008A15DB250A128A11883083120313A000CF
:1000D8001330A1000A128A15F0250A128A1101307C
:1000E8000A128A1195270A128A11831603132F08F8
:1000F80083120313A101A107831603132E08831289
:100108000313A001A00783160313310883120313F6
:10011800A301A30783160313300883120313A20154
:10012800A2070A128A1500270A128A110A128A15CA
:1001380073250A128A11A02883120313E708031DE6
:10014800A628A728DA282830A0000030A1002830E7
:10015800A2000030A3000A128A1500270A128A1189
:100168000A128A110B270A128A11FF30831203130D
:100178002106031DC1289D302006031DC428C5285B
:10018800C928EC010314EC0DC92800306402C930F9
:1001980003196302031CD128D228A028EC01E3012B
:1001A800E401E7010314E70DA028A0286708013A35
:1001B800031DDF28E02867290A128A110B270A1273
:1001C8008A11FF30831203132106031DED289D3089
:1001D8002006031DF028F128F528EC010314EC0D86
:1001E800F5286C08013A031DFA28FB282229283033
:1001F800A0000030A1002830A2000030A3000A129D
:100208008A1500270A128A11003083120313640228
:10021800C93003196302031C12291329A028E80115
:100228000314E80DE301E401023083160313E00030
:10023800600883120313E700A028A0280A128A1175
:1002480098220A128A11831203135A08E601E60754
:100258005908E501E5076503FF3A283E83160313AD
:10026800E000600883120313EA006508283E83163D
:100278000313E000600883120313EB006A08831677
:100288000313E000E101600883120313A000831642
:100298000313610883120313A1006B088316031369
:1002A800E200E301620883120313A200831603131A
:1002B800630883120313A3000A128A1500270A127F
:1002C8008A11A028A028831203136708023A031D85
:1002D8006E296F29172AE808031D73297429F8293C
:1002E8000A128A110B270A128A11FF30831203138C
:1002F8002106031D81299D302006031D8429852997
:100308008929EC010314EC0D89296C08031D8D293A
:10031800B3292830A0000030A1002830A200003006
:10032800A3000A128A1500270A128A1100308312C4
:1003380003136402793003196302031CA429A52955
:10034800A028EC01E801E301E4010330831603135C
:10035800E000600883120313E700A028A0280A120F
:100368008A1198220A128A11831203135A08E60185
:10037800E6075908E501E5076503FF3A283E8316B5
:100388000313E000600883120313EA006508283E9F
:1003980083160313E000600883120313EB006A0856
:1003A80083160313E000E101600883120313A00021
:1003B80083160313610883120313A1006B088316C5
:1003C8000313E200E301620883120313A2008316F9
:1003D8000313630883120313A3000A128A15002764
:1003E8000A128A11A028A02801308312031364027C
:1003F800413003196302031C022A032A082AEC016C
:10040800E301E401E801082A1430A0000030A1004B
:100418003C30A2000030A3000A128A1500270A12F5
:100428008A11A028A028831203136708033A031D22
:100438001E2A1F2AA0280A128A110B270A128A11BB
:10044800FF30831203132106031D2C2A9D3020063A
:10045800031D2F2A302A372AEC010314EC0DED0175
:100468000314ED0D372A6D08013A031D3C2A3D2A75
:100478004B2A0030A0000030A1000030A20000305C
:10048800A3000A128A1500270A128A11A0280A1244
:100498008A1198220A128A11831203135A08E60154
:1004A800E6075908E501E5076503FF3A283E831684
:1004B8000313E000600883120313EA006508283E6E
:1004C80083160313E000600883120313EB006A0825
:1004D80083160313E000E101600883120313A000F0
:1004E80083160313610883120313A1006B08831694
:1004F8000313E200E301620883120313A2008316C8
:100508000313630883120313A3000A128A15002732
:100518000A128A11A028A028A028A028A028A0286C
:10052800A0280A128A111228003083120313871A8E
:100538000130DB000030071A0130DC000130031005
:10054800DC0DFF3E031DA32A0030051A0130DD0033
:1005580002300310DD0DFF3E031DAD2A00300919DE
:100568000130DE0003300310DE0DFF3E031DB72A05
:10057800003089180130DF0004300310DF0DFF3E22
:10058800031DC12A003009180130E00005300310AE
:10059800E00DFF3E031DCB2A003087190130E10032
:1005A80006300310E10DFF3E031DD52A0030071861
:1005B8008030610460045F045E045D045C045B04D5
:1005C800E2006208EE00502B83160313C401C50134
:1005D800802BFF3083160313C400FF30C500802B27
:1005E800013083160313C4000030C500802B02308D
:1005F80083160313C4000030C500802B0330831614
:100608000313C4000030C500802B04308316031385
:10061800C4000030C500802B053083160313C400C6
:100628000030C500802B063083160313C400003049
:10063800C500802B073083160313C4000030C500A3
:10064800802BFE3083160313C400FF30C500802BB7
:10065800FD3083160313C400FF30C500802BFC3027
:1006680083160313C400FF30C500802BFB308316AC
:100678000313C400FF30C500802BFA308316031320
:10068800C400FF30C500802BF93083160313C40063
:10069800FF30C500802B802B83126E083F3A031968
:1006A800172B403A03191E2BE03A0319092B203A5D
:1006B8000319102B703A0319FB2A103A0319022B5D
:1006C800383A0319E82A083A0319F42A1C3A031994
:1006D800252B043A0319ED2A0E3A0319332B023A53
:1006E80003192C2B073A0319412B013A03193A2B0A
:1006F800033A0319482B802B8316031340098312EE
:100708000313DB0083160313410983120313DC0070
:10071800DB0A0319DC0A8316031344088312031344
:100728005B0783160313BE0045080318450A8312A6
:1007380003135C0783160313BF004508C101C107F3
:100748004408C001C007450883120313B701B7075F
:1007580083160313440883120313B601B6070A125B
:100768008A159D260A128A11831203133608BF00C0
:100778003708C0003808C100831603135D088312C8
:100788000313BC00831603135E0883120313BD0012
:10079800831603135F0883120313BE000A128A111B
:1007A80077250A128A11831203133C08CF003D08EB
:1007B800D0003E08D100831603132B0883120313BD
:1007C800A301A307831603132A0883120313A201A4
:1007D800A207831603133F0883120313A101A1077D
:1007E800831603133E0883120313A001A0070A12FD
:1007F8008A1571260A128A11831203132108B70178
:10080800B7072008B601B6070A128A159D260A12EC
:100818008A11831203133608CC003708CD00380834
:10082800CE000A128A1131240A128A118312031384
:100838004C08A8004D08A9004E08AA000A128A11FF
:1008480065260A128A11831203132908DA01DA07C6
:100858002808D901D907302C0800831203134C0843
:10086800D2004D08D3004E08D4000310530D540D88
:10087800D5005508D8004F08D2005008D3005108B9
:10088800D4000310530D540DD5005508D70058084F
:10089800031D4F2C602C570858020318542C552C54
:1008A800682C5803FF3A5707D20019305202031C2C
:1008B8005E2C5F2C682C602C4F08CC005008CD00B3
:1008C8005108CE00762D762D5708031D6C2C7C2CF4
:1008D800580857020318712C722C7D2C5703FF3AC5
:1008E8005807D20019305202031C7B2C7C2C7D2C1B
:1008F800762D0630D2005208D600CE1F842C852CC7
:10090800862CD617D11F892C8A2C8B2C5617CD17DD
:10091800FF30CC05FF30CD050030CE05D017FF30B5
:10092800CF05FF30D0050030D1055708580203180D
:100938009E2C9F2CD02CA02C01300310CF0DD00D55
:10094800D10DFF3E031DA12C0130D70257085806D0
:100958000319AF2CB02CC82C0130D6025608073921
:10096800031DB72CB82CA02CC82CC82CC82C0130BF
:100978000310CE0CCD0CCC0CFF3E031DBC2C01305B
:10098800D2005208D807C82C58085706031DCD2C8A
:10099800CE2CBB2C072D072D580857020318D52C31
:1009A800D62C072DD72C01300310CC0DCD0DCE0D34
:1009B800FF3E031DD82C0130D802570858060319EA
:1009C800E62CE72CFF2C0130D60256080739031D08
:1009D800EE2CEF2CD72CFF2CFF2CFF2C0130031012
:1009E800D10CD00CCF0CFF3E031DF32C0130D200EC
:1009F8005208D707FF2C58085706031D042D052D4C
:100A0800F22C072D072DD61F0A2D0B2D1C2DFF307C
:100A1800CC06FF30CD06FF30CE060130CC070030C3
:100A280003180130CD07003003180130CE071C2D04
:100A3800561F1F2D202D312DFF30CF06FF30D00639
:100A4800FF30D1060130CF07003003180130D0073E
:100A5800003003180130D107312DD6014C08CF07DB
:100A68004D08031103184D0A03193B2DD0074E08F2
:100A7800031103184E0A0319422DD107D11F452D22
:100A8800462D5A2DFF30CF06FF30D006FF30D10655
:100A98000130CF07003003180130D00700300318A9
:100AA8000130D107D6010314D60D5A2D4F08A000E6
:100AB8005008A1005108A2005808D2005208A3000B
:100AC8005608D3005308A4000A128A1583270A126D
:100AD8008A11831203132008CC002108CD002208B4
:100AE800CE00762D0800831203133C08C2003D088F
:100AF800C3003E08C4000310430D440DC50045085B
:100B0800C600C608031D892D8A2D922D0030BC0011
:100B18000030BD000030BE00642E642E3F08C200C5
:100B28004008C3004108C4000310430D440DC5002C
:100B38004508CB00CB08031DA22DA32DAB2D0030FB
:100B4800BC000030BD000030BE00642E642E4B088F
:100B58007B3EC2004208C6073C08C2003D08C300ED
:100B68003E08C40010300310C40CC30CC20CFF3E76
:100B7800031DB72D4208C5004508CB003F08C20039
:100B88004008C3004108C40010300310C40CC30C53
:100B9800C20CFF3E031DC92D4208C5004508CB06FF
:100BA8008030C2004208CB05BD17C017FF30BF0513
:100BB800FF30C0050030C1050030C7000030C80054
:100BC8000030C9000730C2004208CA00EB2D3C1CA7
:100BD800EE2DEF2D002E3F08C7074008031103181C
:100BE800400A0319F82DC807410803110318410AE0
:100BF8000319FF2DC907002E01300310BE0CBD0CD0
:100C0800BC0CFF3E031D012E01300310BF0DC00DAB
:100C1800C10DFF3E031D092E0130CA02031D152E0A
:100C2800162EEB2D172E0930C2004208CA001C2EC2
:100C38003C1C1F2E202E312E3F08C70740080311E9
:100C48000318400A0319292EC8074108031103187D
:100C5800410A0319302EC907312E01300310BE0C8A
:100C6800BD0CBC0CFF3E031D322E01300310C90C15
:100C7800C80CC70CFF3E031D3A2E0130CA02031DE3
:100C8800462E472E1C2E482E4708A0004808A100D3
:100C98004908A2004608C2004208A3004B08C30046
:100CA8004308A4000A128A1583270A128A1183129C
:100CB80003132008BC002108BD002208BE00642ED2
:100CC8000800831203132808AC002908AD002A087D
:100CD800AE0003102D0D2E0DAF002F08B500B5087E
:100CE800031D772E782E822E0030AB000030AA002C
:100CF8000030A9000030A8000A2F0A2F2808AC00ED
:100D08002908AD002A08AE0017300310AE0CAD0C50
:100D1800AC0CFF3E031D892E2C08AF002F08B00035
:100D2800A917FF30A805FF30A9050030AA05280833
:100D3800B1002908B2002A08B300B4018E30B50208
:100D4800B51FA72EA82ECD2E3508803A8F3E031842
:100D5800AE2EAF2EBA2E0030AB000030AA00003005
:100D6800A9000030A8000A2F0A2FBA2E013003105C
:100D7800B40CB30CB20CB10CFF3E031DBB2E0130FA
:100D8800AC002C08B507031DCA2ECB2EBA2EF12EA7
:100D9800F12E18303502031CD22ED32EEA2E003045
:100DA800AB000030AA000030A9000030A8000A2FCC
:100DB8000A2FEA2E0130AC000310B10DB20DB30DAD
:100DC800B40DAC0BE02E0130B502EA2EB508031DB8
:100DD800EE2EEF2EDE2EF12EF12E3008031DF52E0D
:100DE800012FB109B209B309B409B10A0319B20A4A
:100DF8000319B30A0319B40A012F3408AB003308E6
:100E0800AA003208A9003108A8000A2F08000030FB
:100E180083120313871A0130A2000030071A013029
:100E2800A30001300310A30DFF3E031D162F003051
:100E3800051A0130A40002300310A40DFF3E031D63
:100E4800202F003009190130A50003300310A50D2B
:100E5800FF3E031D2A2F003089180130A6000430F8
:100E68000310A60DFF3E031D342F00300918013072
:100E7800A70005300310A70DFF3E031D3E2F0030CD
:100E880087190130A80006300310A80DFF3E031D86
:100E9800482F00300718803028042704260425042A
:100EA800240423042204A9002908AA00742F5E2F11
:100EB8005E2F5E2F9D30A000FF30A100942F942F4D
:100EC800692F692F692F692F692FBE30A000FF3065
:100ED800A100942F942FA001A101942F942F942F57
:100EE8002A08003A03195E2F3C3A0319692F013A80
:100EF8000319692F033A0319692F423A0319692F15
:100F0800023A0319692FFF3A03195E2F023A0319AF
:100F18005E2F3E3A0319692F7C3A03195E2F6F2F13
:100F2800080083120313A6002130A3002308A5009C
:100F3800D62F2708253A0319A22FA32FAA2F27084F
:100F48000A128A1565250A128A11D62FA401C12F03
:100F5800EC2F2508840083130008A3002308A700AA
:100F68000230A3002308A507B92F27080A128A15FB
:100F780065250A128A11D62FD62F01308312031342
:100F8800A607FF30260784000A128A1500200A12D5
:100F98008A11A700003A0319EC2F633A0319AD2F01
:100FA800B92FD62F013083120313A607FF30260767
:100FB80084000A128A1500200A128A11A300230845
:100FC800A700A708031DE92FEA2F9D2FEC2FEC2F70
:100FD8000800303431343234333434343534363430
:100FE8003734383439344134423443344434453462
:100FF8004634CD344C34403408308A000408840A1E
:1010080082070034B434AE34BF34DA34B334F53440
:10101800CA34BC34BB34AF34CD34EA34B334C93405
:1010280021340D340A340034533470346534653453
:1010380064343A3400344334413452342034313443
:08104800003425346334003448
:101A8C008316031307178717080064008001840A64
:101A9C0004060319003404064C2D83160313051198
:101AAC0085128511880107309F00080083160313E7
:101ABC00061286120613861387100711080083126C
:101ACC000313A000200899006B2D83160313981C98
:101ADC00702D712D6B2D722D0800831603130614B7
:101AEC008B170B168B10473081008B160B113C306B
:101AFC00831203138100080024308316031398000B
:101B0C0090308312031398000C3083160313990042
:101B1C008B170B178C16080083120313A2002208D4
:101B2C0088008512051185110A128A1507260A12DA
:101B3C008A15831203138515080083120313A20060
:101B4C00220888008516051185110A128A150726A8
:101B5C000A128A1583120313851508007E088A0061
:101B6C007F0882000A128A15B4250A128A15800091
:101B7C00840A04087D0603190034FF0A0319FE0ABF
:101B8C00B82D0C308312031397003230950064305B
:101B9C008316031392000C30831203139D00323012
:101BAC009B0092019101121508008B170B178312E1
:101BBC0003130C10831603138514051007309F00B4
:101BCC008801831203130510851490018F018E0177
:101BDC0010100800F32D0000F32D013083120313B5
:101BEC00A0020030031CA103A102FF302106031D3B
:101BFC00012EFF302006031D042E052EF12D062E7E
:101C0C000800E73083120313A0000330A100210861
:101C1C002004031D122E132E152E222E222E0130DF
:101C2C00A0020030031CA103A10221082004031D03
:101C3C00202E212E152E222E08008312031388012C
:101C4C000A128A1507260A128A1501300A128A15F9
:101C5C0092250A128A1538300A128A1592250A1210
:101C6C008A150C300A128A1592250A128A1506302A
:101C7C000A128A1592250A128A1580300A128A15C0
:101C8C0092250A128A150800F901F501F601F701EF
:101C9C00F8018313633084006F300A128A154B25C8
:101CAC000A128A15A0308400CD300A128A154B25F1
:101CBC000A128A15E030FD000730FE00ED30FF00FF
:101CCC00CD3084000A128A15B8250A128A158301B0
:101CDC000A128A11152883120313A401A501762E6A
:101CEC00201C792E7A2E802E2208A4070318A50A10
:101CFC002308A50701300310A20DA30DFF3E031D01
:101D0C00812E01300310A10CA00CFF3E031D882E68
:101D1C0021082004031D932E942E762E952E250833
:101D2C00A101A1072408A001A0079C2E0800831282
:101D3C000313BB01B71FA32EA42EAD2EB609B709F2
:101D4C00B60A0319B70ABB010314BB0DAD2E360836
:101D5C00A0003708A100A2018E30B9003908A300F9
:101D6C003B08BA003A08A4000A128A1583270A1203
:101D7C008A15831203132008B6002108B700220825
:101D8C00B800C82E08008C1ECC2ECD2ED32E1A08CF
:101D9C00F0007008F5008C12F42E0B1DD62ED72EE9
:101DAC00DB2E3C3081000B11F42E8B1CDE2EDF2E33
:101DBC00EC2E6C08031DE32EEA2E0130E30703180A
:101DCC00E40A0030E407EA2E8B10F42E0B1CEF2EE5
:101DDC00F02EF42E0B10F42EF42EF42E0C1074089E
:101DEC00FF0073088A0072088400710E8300FE0ED7
:101DFC007E0E0900831203132108803AFF00803005
:101E0C007F02031D0B2F01302002031C0E2F0F2FFE
:101E1C00162F8312031306168612200895001E2F08
:101E2C0083120313061286162003FF3A95001E2F09
:101E3C002308803AFF0080307F02031D272F0130DA
:101E4C002202031C2A2F2B2F322F83120313061767
:101E5C00861322089B003A2F83120313061386174E
:101E6C002203FF3A9B003A2F080083120313A700AA
:101E7C002708013A031D432F442F4A2F2308803E85
:101E8C00A5002508A600572F2708023A031D4F2F3F
:101E9C00502F572F2308C03EA5002508A600572F0A
:101EAC00572F26080A128A1592250A128A15732FA3
:101EBC0083120313240884000A128A1500200A12C4
:101ECC008A150A128A15A3250A128A150130831263
:101EDC000313A5002508A407732F831203132408EA
:101EEC0084000A128A1500200A128A150038031D74
:101EFC00802F812F5E2F822F08008312031323085B
:101F0C00031D892F912F220821042004031D8F2FDC
:101F1C00902FA72F912F0030A0000030A10000308F
:101F2C00A200FF2FFF2FA72F0130A5002508A30724
:101F3C0001300310A20CA10CA00CFF3E031D9F2F1F
:101F4C00A72FFE302205031DAC2FAD2F9A2FC52FC6
:101F5C00C52F0130A5002508A3070130A0070030CC
:101F6C0003180130A107003003180130A20701301B
:101F7C000310A20CA10CA00CFF3E031DBE2FFF30C2
:101F8C002205031DCA2FCB2FAF2FD82FD82F0130EE
:101F9C00A30201300310A00DA10DA20DFF3E031DE5
:101FAC00D02FD82FA11FDB2FDC2FCD2F2318DF2F05
:101FBC00E02FE62FFF30A0057F30A105FF30A205F2
:101FCC000310A30C2308A500A601A70110300310D1
:101FDC00A50DA60DA70DFF3E031DED2F2508A00492
:101FEC002608A1042708A2042408031DFE2FFF2F96
:041FFC00A217080020
:02400E0029FF88
:00000001FF
